:020000040800F2
:200000002018002001010008D338000895350008D1380008310900085547000800000000A2
:2000200000000000000000000000000015420008A109000800000000F53800081742000819
:200040001B0100081B0100081B0100081B0100081B0100081B010008A3090008A90900085A
:20006000AF090008B5090008BB0900081B0100081B0100081B0100081B0100081B0100087A
:200080001B0100081B010008690800081B0100081B0100081B0100081B010008C10900083D
:2000A0001B0100081B0100081B010008CD4200081B010008D14200081B0100081B01000836
:2000C0001B0100081B0100081B0100081B0100081B010008294700081B0100084947000838
:2000E0001B0100081B0100081B010008DFF80CD000F05CFB00480047514800082018002012
:200100000648804706480047FEE7FEE7FEE7FEE7FEE7FEE7FEE7FEE7FEE7FEE78542000874
:20012000ED000008202A04DB203A21FA02F00021704721FA02F3D040C2F120029140084351
:200140001946704710B5431A934209D28318881803E010F8011D03F8011D521EF9D210BD52
:2001600040EA01039B0703D009E008C9121F08C0042AFAD203E011F8013B00F8013B521E63
:20018000F9D210BDD2B201E000F8012B491EFBD270470022F6E710B513460A46044619463D
:2001A000FFF7F0FF204610BDF0B480EA0102D40F4200B2EB410F02D20246084611464A00F9
:2001C00042D0C30DDDB2C1F3C752AD1A202D35DAC1F3160141F4000204B15242C5F1200697
:2001E00002FA06F12A411044B3EBD05F23D0C4B1012DA0EBC35009DCF0BC4FF0004202EA4E
:20020000C352DBB200F5000000F085B9400000F1807000EBC350A0F1807040EAD1704900C5
:2002200009E0490841EAC071A0EBC35000F50000400800EBC350F0BC00F064B961420122D0
:2002400002EB4101001BF6E7F0BC704781F00041AAE780F00040A7E780EA010210B502F06F
:200260000043400022D04A001FD0010E01EB1261C0F35600C2F3560240F4000042F40002E0
:20028000A0FB022000047F39140400D0401C50EA124001D44000491EC2B20C0604EBD01044
:2002A000401C4008802A02D003E0002010BD20F00100002900DA0020184310BD30B480EAA4
:2002C000010202F0004530F0004221F0004013D090B1C30DD40DC2F31601C0F31600E41AC9
:2002E00041F4000140F400027D34914201D3641C00E04900002C02DA30BC002070474FF483
:2003000000000023914201D3891A034340084FEA4101F7D151B1914202D14FF0004105E092
:2003200002D24FF0010101E06FF0010103EBC450284430BC00F0E6B82DE9F04D81EA0304B9
:2003400004F0004B21F0004514464FF0000A23F0004150EA050220D054EA01021DD0C5F3FA
:200360000A570246C5F31303C1F31300C1F30A5640F4801543F48013A7EB0608101BD646B1
:2003800008F2FD3873EB050002D308F1010801E092185B41B8F1000F03DA00200146BDE82C
:2003A000F08D00204FF48011064684460EE0171B73EB050705D3121B63EB050306434CEA52
:2003C000010C49084FEA300092185B4150EA0107EDD152EA030012D082EA040083EA05010C
:2003E000084305D0101BAB4106D20122002306E000224FF0004302E06FF0010253101AEB72
:2004000006004CEB085110EB0A0041EB0B01BDE8F04D00F0AEB8C10F80EAE0700844CA072A
:200420009623002100F077B896230022114600F072B80EB540F2334102910021CDE9001193
:200440000A460B4600F0A4F803B000BDC1F30A5210B5C1F3130140F2FF3341F480119A425C
:2004600001DA002010BD40F233439A42A2F2334203DC5242FFF756FE10BD904010BD00F010
:20048000004230F000400AD0C10D01F56071C0F3160042EA0151C2084007114370470020C8
:2004A0000146704701F0004330B421F0004150EA010206D00A0DA2F56072C1F31301002A4F
:2004C00002DC30BC00207047440F44EAC104C100E01830BC00EBC25000F014B8002801DBD3
:2004E000C0F10040002901DBC1F1004181427047002801DBC0F10040002901DBC1F10041AC
:20050000884270470029A8BF7047401C490008BF20F00100704710B4B0FA80FC00FA0CF0FF
:2005200050EA010404BF10BC704749B1CCF1200421FA04F411FA0CF118BF01212143084398
:20054000A3EB0C01CB1D4FEA00614FEA102042BF002010BC704700EBC35010440029A4BF93
:2005600010BC7047401C490008BF20F0010010BC704710B5141E73F1000408DA401C41F129
:20058000000192185B411A4301D120F0010010BD2DE9F04D92469B4611B1B1FA81F202E039
:2005A000B0FA80F22032904600F012F904460F4640EA0A0041EA0B0153465A46084313D08B
:2005C000114653EA010019D0C8F140025046FFF7A9FD05460E4650465946424600F0F8F834
:2005E000084305D0012004E020463946BDE8F08D0020054346EAE0762C4337430A986305EE
:20060000E40AA0EB08000022FD0A44EA47540A3002D500200146E9E7010510196941DDE980
:20062000084500196941BDE8F04DA2E72DE9FE4F804681EA0300C00F0C46009021F00041A5
:2006400023F00045B8EB0200A94105D24046214690461C460B46024623F00040104347D061
:20066000270DC7F30A00C3F30A510290401A019040286BDAC3F3130040F4801B009892463F
:2006800020B10023D2EB030A63EB0B0B01985946C0F14002504600F09BF806460D465046BF
:2006A0005946019A00F0A3F810EB08006141002487EA115284EAE7731A4340D0009A62B3F4
:2006C000019A012A4FEA075215DC001B61EB02014FF0004202EA0752CDE90042001C41F557
:2006E000801132462B46FFF753FF03B0BDE8F08F40462146F9E7001B61EB0201001C41F5D8
:20070000801300185B412018A2F5001747EB030140EAD570B6196D4111E06D084FEA3606AF
:2007200045EAC0754FEA0752001B61EB0201001C41F5801149084FEA300000195141324699
:200740002B4603B0BDE8F04FFFF713BF0098012240000023D0EB020263EBE073009821464C
:200760004FEAE074B8EB000061EB0401E9E783F000435BE781F0004158E7000030B5041E38
:2007800071F1000404DB4FF00044404264EB0101141E73F1000405DB1C464FF000435242CC
:2007A00063EB0403994208BF904230BD064C074D06E0E06840F0010394E8070098471034D5
:2007C000AC42F6D3FFF796FCC8610008E8610008202A04DB203A00FA02F100207047914040
:2007E000C2F1200320FA03F3194390407047202A06DBCB17203A41FA02F043EAE07306E036
:2008000041FA02F3D040C2F12002914008431946704770B58C1810F8015B15F0070301D183
:2008200010F8013B2A1106D110F8012B03E010F8016B01F8016B5B1EF9D12B0705D4002301
:20084000521E0DD401F8013BFAE710F8013BCB1A921C03E013F8015B01F8015B521EF9D57D
:20086000A142D8D3002070BD014800F0C3B900002007002070B5044600688168C943C90705
:200880001CD1816821F00101816001F0D9FE05460FE000BF01F0D4FE401B022809D9A06A99
:2008A00040F01000A062E06A40F00100E062012070BD20688068C043C007EBD0002070BDA9
:2008C000F8B500260446009600688168C943C90728D0816841F00101816013481349006824
:2008E000B0FBF1F000E0401E00900028FBD101F0A7FE054611E000BF01F0A2FE401B022803
:200900000BD9A06A40F01000A062E06A40F00100E06284F824600120F8BD20688068C043A1
:20092000C007E9D10020F8BDF002002040420F00FEE700000E48016821F08071016001684E
:2009400041F0807101600B48016821F001010160016841F0010101600021416000BF00BFA7
:2009600000BF406808B100207047012070470000FCED00E0001000E031B5084D6C6802F0EE
:2009800025F84FF47A71B0FBF1F000994843009068680099001B8842FAD338BD001000E0CC
:2009A0007047012001F05CBD022001F059BD042001F056BD082001F053BD102001F050BDAD
:2009C00010B5202001F04CFD402001F049FDBDE81040802001F044BD06490020C8610648D4
:2009E000016941F004010161016941F040010161704700000014002000200240064A0021F9
:200A0000D16106490A6942F002020A614861086940F0400008617047001400200020024001
:200A2000044B0022DA61044A136943F0010313610180704700140020002002401448002249
:200A4000C168CB06134904D5CA6942F00202CA611022C3685B0705D5CB6943F00103CB61A3
:200A600042F00402C369DB0707D0CB6943F00403CB61C16921F00101C161A2F5807101399E
:200A800001D0C2607047C16921F00101C1617047002002400014002070B5054601F0D0FDD2
:200AA0000646114C09E0681C07D025B101F0C8FD801BA84201D9032070BDE068C007F2D13C
:200AC000E068800601D52020E060E068C00605D4E069C00702D1E068400703D5FFF7AEFF1E
:200AE000012070BD002070BD0020024070470000F8B50024009490F824202546012A12D099
:200B0000012280F824204A681F23072A0DD20668776B521E02EB820293409F430B689340C6
:200B20001F43776319E00220F8BD06680D2A0AD2376BD21F02EB820293409F430B68934029
:200B40001F43376309E0F76A0D3A02EB820293409F430B6893401F43F7620A6807230668D7
:200B60000A2A0AD3F7680A3A02EB420293409F438B6893401F43F76008E0376902EB4202A3
:200B800093409F438B6893401F4337610A68102A01D0112A20D1124B02689A4217D19368B1
:200BA0001B0219D4936843F4000393600968102912D10C490C4A0968B1FBF2F101EB81015D
:200BC000490000E0491E00910029FBD104E0816A41F020018162012480F824502046F8BDCF
:200BE00000240140F002002040420F0070470068C06C704710B5044600684168890626D541
:200C00000168890723D5A16AC90603D4A16A41F40071A1628168C1F34241072910D1E16804
:200C200071B9416821F020014160A06A20F48070A062A06AC00403D4A06A40F00100A0621C
:200C40002046FFF7D3FF21686FF0120008602068416809062ED5016849072BD5A16AC9062E
:200C600003D4A16A41F40051A1628168C1F30231072909D04168490515D48168C1F3424130
:200C8000072910D1E16871B9416821F080014160A06A20F48050A062A06AC00503D4A06A54
:200CA00040F00100A0622046FFF720FF21686FF00C0008602068416849060DD50068C00799
:200CC0000AD0A06A40F48030A062204600F094F821686FF00100086010BD00002DE9F04103
:200CE0004FF0000704003D467ED0A06A002628B9E66284F82460204600F080F82046FFF756
:200D0000B9FDA16AC90600D420B1A06A40F01000A06269E0A16A21F4885141F00201A162D9
:200D20006268E169E3680A4347EA43010A43A1684FF48077B94209D0012907D05FF00001DD
:200D4000D4F814C0BCF1010F02D00AE03946F7E7F3B1A36A43F02003A362E36A43F001038D
:200D6000E3622368D3F804C02CF4694C4CEA010CC3F804C021688B68DFF870C003EA0C03FE
:200D800013438B60A168B9420BD0012909D00CE0DFF85CC0A3690CEB43330B4343F40061F2
:200DA000DFE7218A0D05A5F580152168CB6A23F470032B43CB62216889680E4B194091429F
:200DC00008D1E662A16A21F0020141F00101A162BDE8F081A06A20F0020040F01000A06229
:200DE000E06A40F00100E0620120F1E7FDF7E1FF00E0FFFFFE0E1FFF7047000000B585B0C0
:200E00000021009101910291039100681249884220D11248816941F400718161816901F43E
:200E200000710491816941F0040181618069694600F00400049007200090032001900848CF
:200E400001F01AFB00221146122001F061FC122001F052FC05B000BD0024014000100240F9
:200E60000008014070B5044690F8240001280DD0012084F824002046FFF722FD02004FF08B
:200E8000000005D084F82400104670BD022070BDA16A40F20123994341F48071A1621F4D39
:200EA00023681F49AB4218D10E6816F4702F14D0A66A46F48016A6620E68760505D5A66AA3
:200EC00026F4005646F48056A662A66AF6040AD5E66A26F00606E66206E0A66A26F4801641
:200EE000A6625E68E9E7E06284F824006FF00200186020688368C3F34243072B05D1A842F9
:200F000008D1096811F4702F04D0816841F480118160B9E7816841F4A001F9E700280140D7
:200F20000424014010B590F821100024022903D00421816301243DE001680A6822F00E0260
:200F40000A6001680A6822F001020A601A4A0168914201D1012121E0174A1432914201D1EC
:200F600010211BE0144A2832914201D1891515E0114A3C32914201D189140FE00E4A503281
:200F8000914202D14FF4803108E00B4A6432914202D14FF4801101E04FF08071064A083AC7
:200FA0005160012180F82110002180F82010416B01B18847204610BD0800024070B50446D3
:200FC00001F03EFB0546601C02D004480078044401F036FB401BA042FAD370BDE4020020E3
:200FE0002DE9F047054626480F460126017E01290FD00121814601762868DFF888804CF2DA
:201000005034022808D0A2462046FFF745FDA8B131E00220BDE8F0872046FFF73DFD08BBC3
:201020000120FFF7D9FC2046FFF736FDD8F81010064621F00401C8F810101CE04FF0FF3099
:201040003860AC6811E02046FFF7D8FC5046FFF723FDD8F81010060021F00201C8F810102D
:2010600001D03C6007E004F58064D5E9020100EB8120A042E7D8002189F818103046C9E761
:2010800000140020002002400348016941F080010161002070470000002002402DE9F05F53
:2010A00007461C4888460024017E15461E46012909D00121814601764CF2503A5046FFF798
:2010C000EBFC18B122E00220BDE8F09F012F02D0022F00D00427D346DFF83CA0220128467D
:2010E0003146FFF71FF881B208EB4400FFF798FC5846FFF7D1FCDAF8102022F00102CAF83E
:20110000102018B9641CE4B2BC42E7D3002289F81820D9E700140020002002400649002060
:201120000A69120607D5054A4A60054A4A600969090600D5012070470020024023016745F6
:20114000AB89EFCD2DE9F04FA1B04FF0010860216846FFF71EF80026FE4C0225B34666641C
:201160001B9618962078B246374604F18009012827D0172871D14F46DFF8DCA3DFF8DC93B3
:20118000DFF8DC83206CF96A401AFFF74DF9396BFFF762F8F349FFF75FF8FFF770F903F0C5
:2011A000E9FA00225346FFF7C7F8FFF77BF9484502DDE178002973D0EAE3464501D102F025
:2011C0009BFB94F8291008EB0100B04201D102F0CBFDE06D864208D3206E864205D8D4E962
:2011E000101008447F1CFFB26064256EAE421ED1606CB0FBF7F0FFF717F98246D9F82C00D8
:20120000FFF712F95146FFF724F8D9F83010FFF723F8D449FFF720F8FFF731F903F0AAFA20
:201220000022CD4BFFF788F8FFF73CF982466D1CAE426DD15046616EFFF750F97BD84D46CA
:201240005046D9F80810FFF753F974D8207F40B3012803D0022818D10BE0F3E3686B28B173
:2012600001282BD011D994F8252009E094F8251021E0686BE8B1012820D006D994F82620AE
:20128000B949A0F101000A70686394F82C00002876D0B649014411F8011C092938D201E0C8
:2012A000EFE30BE0DFE801F0340E2035485A6D7F910094F82610AC480170E6E7AA4981F8A3
:2012C00000B0E2E794F83410002921D0A74A603A0A4412F8013CA44A503A13700122491E06
:2012E0001B9284F8341010E094F835100029ECD09E4A5A3A0A4412F8013C9B4A503A1370D8
:201300000122491E1B9284F83510401E84F82C00D7E094F836100029FAD0944A543A0A4499
:2013200012F8013C904A503A13700122491E1B9284F83610E9E75FE094F837100029E7D0C4
:201340008A4A4E3A0A4412F8013C874A503A13700122491E1B9284F83710D6E794F8381033
:201360000029D5D0814A483A0A4412F8013C7E4A503A13700122491E1B9284F83810C4E742
:2013800035E094F839100029C2D0784A423A0A4412F8013C744A503A13700122491E1B92D3
:2013A00084F83910B1E794F83A100029B0D06F4A3C3A0A4412F8013C6B4A503A13700122A8
:2013C000491E1B9284F83A109FE794F83B1000299ED0664A363A0A4412F8013C624A503A54
:2013E00013700122491E1B9284F83B108DE75E49503981F800B0EDE35046A16EFFF76EF8CE
:2014000075D84D465046D9F80C10FFF771F86ED8607F20B1012806D002281BD10EE0524877
:2014200080F800B016E0A86B28B101282AD011D994F8252009E094F8251020E0A86BE0B176
:2014400001281FD006D994F826204749A0F101000A70A86394F82D000028C8D0434901F125
:201460000801014411F8011C09292AD2DFE801F0290E152A313840474E0094F826103A481A
:201480000170E7E7384981F800B0E3E794F8341000298BD0354A603A3EE094F83510002914
:2014A00084D0324A5A3A0A4412F8013C2E4A503A137002221B92491E84F83510401E84F8DB
:2014C0002D009FE094F836100029FAD0274A543A22E094F837100029F3D0244A4E3A1BE0EA
:2014E00094F838100029ECD0204A483A14E01EE094F839100029E4D01C4A423A0CE094F849
:201500003A100029DDD0194A3C3A05E094F83B100029D6D0154A363A114411F8012C124992
:2015200050390A7002211B9194F83510C3E75046E16EFEF7D3FF75D84D465046D9F810104B
:20154000FEF7D6FF6ED8A07F90B1012814D0022829D11CE000000020000024400000A04189
:201560003403002000002041A008002038010020F94880F800B016E0E86B28B1012829D0E5
:2015800011D994F8252009E094F825101FE0E86BD8B101281ED006D994F82620EE49A0F17B
:2015A00001000A70E86394F82E1000293FF41FAFEA48084410F8010C092823D2DFE800F001
:2015C000220E1523333A41484F0094F82610E2480170E8E7E04981F800B0E4E794F8340055
:2015E000002888D0DD4A703A3FE094F83500002888D0DA4A6A3A38E0401E84F83600491EE3
:2016000084F82E107FE394F836000028FAD0D34A643A024412F8013CCF4A503A1370032267
:201620001B92E9E72CE094F837000028EAD0CB4A5E3A1AE094F838000028E3D0C74A583A93
:2016400013E094F839000028DCD0C44A523A0CE094F83A000028D5D0C04A4C3A05E094F8E4
:201660003B000028CED0BD4A463A104410F8012CB9485038027003201B9094F83600BBE72C
:201680005046216FFEF72AFF6FD84D465046D9F81410FEF72DFF68D8E07FA0B3012802D093
:2016A000022817D10AE0286C28B101282CD011D994F8252009E094F8251021E0286CE8B109
:2016C000012821D006D994F82620A349A0F101000A70286494F82F0000283FF488AE9F4987
:2016E00001F10801014411F8011C09298AD2DFE801F0250F141926353D444B0094F82610F4
:2017000095480170E6E7FFE7934981F800B0E1E7924994F83420703908E0904994F83520F5
:201720006A3903E08D4994F836206439114432E0491E84F83710401E84F82F00E3E294F8E3
:2017400037100029FAD0854A5E3A0A4412F8013C814A503A137004221B92E9E794F83820F4
:20176000002AEBD07D495839E0E71EE094F839100029E3D0794A523A0CE094F83A1000297D
:20178000DCD0764A4C3A05E094F83B100029D5D0724A463A114411F8012C6F4950390A704B
:2017A00004211B9194F83710C2E75046616FFEF795FE78D84D465046D9F81810FEF798FEF1
:2017C00071D894F8200020B1012806D002281BD10EE0614880F800B016E0686C28B10128A3
:2017E0002BD011D994F8252009E094F8251021E0686CE8B1012820D006D994F826205649B2
:20180000A0F101000A70686494F8300000283FF4EEAD524901F11001014411F8011C092903
:201820008CD2DFE801F0220E15232A3141484F0094F8261048480170E6E7474981F800B0AE
:20184000E2E794F8341000298BD0444A703A3FE094F83510002984D0404A6A3A38E0491E19
:2018600084F83810401E84F830004CE294F836100029FAD0394A643A2AE094F83710002980
:20188000F3D0364A5E3A23E094F838100029ECD0324A583A0A4412F8013C2F4A503A137088
:2018A00005221B92DBE71EE094F8391000296ED02A4A523A0CE094F83A10002967D0274AC5
:2018C0004C3A05E094F83B10002960D0234A463A114411F8012C204950390A7005211B91B7
:2018E00094F83810BBE75046A16FFEF7F7FD6FD84D465046D9F81C10FEF7FAFD68D894F8BE
:20190000210068B3012802D0022817D10AE0A86C28B1012832D011D994F8252009E094F84C
:20192000251028E0A86CE0B1012827D006D994F826200949A0F101000A70A86494F83100CD
:2019400000283FF454AD054901F11801014411F8011C09291BD205E0A00800204801002032
:201960000CE006E0DFE801F0130E1522282E35434A0094F82610FE480170DFE7FC4981F870
:2019800000B0DBE794F8341009B1FA4A3BE034E0FDE394F8351081B3F64A921D33E0491E8A
:2019A00084F83910401E84F83100ACE194F8361019B3F04A0C3226E094F83710E9B1ED4A0A
:2019C000123220E094F83810B9B1EA4A18321AE024E094F8391081B1E64A1E320A4412F82A
:2019E000013CE34A503A137006221B92D7E794F83A1011B1DF4A243205E041E094F83B10E9
:201A0000F1B3DC4A2A32114411F8012CD84950390A7006211B9194F83910C0E75046E16FBC
:201A2000FEF75CFD74D84D465046D9F82010FEF75FFD6DD894F82200C0B3012803D0022805
:201A400018D10BE0FEE3E86C28B101282FD011D994F8252009E094F8251024E0E86C00B30C
:201A6000012824D006D994F82620C149A0F101000A70E86494F8320000283FF4B8AC01E0D8
:201A800047E0FDE3BB4901F19001014411F8011C09293ED2DFE801F03D0F142A30363E44E1
:201AA000520094F82610B2480170E3E7FFE7B04981F800B0DEE794F8341051B3AD4A04E061
:201AC00094F8351029B3AB4A921D114411F8012CA74950390A7007211B9194F83A10491E26
:201AE00084F83A10401E84F832000CE194F8361079B1A04A0C32E8E794F8371049B19D4A80
:201B00001232E2E794F8381019B19A4A1832DCE71AE035E094F8391091B3964A1E32D4E716
:201B200094F83A1061B3934A24320A4412F8013C8F4A503A137007221B92D0E794F83B10A9
:201B4000F1B18C4A2A32C0E74D465046D9F80010FEF7C4FC70D85046696AFEF7C9FC6BD89D
:201B600094F82300A8B3012802D0022818D10BE0286D30B101282ED012D994F825200AE01F
:201B80005BE094F8251021E0286DE8B1012822D006D994F826207649A0F101000A702865F6
:201BA00094F8331000293FF422AC724800F19800084410F8010C09283FD2DFE800F0A410DB
:201BC000152B31373F454B0094F8261068480170E6E700E094E0664981F800B0E0E794F85F
:201BE000340050B3634A04E094F8350028B3614A921D104410F8012C5D48503802700820D7
:201C00001B9094F83B00401E84F83B00491E84F8331078E094F8360078B1564A0C32E8E727
:201C200094F8370048B1534A1232E2E794F8380018B1504A1832DCE71AE035E094F8390036
:201C400090B34C4A1E32D4E794F83A0060B3494A2432CEE708201B9094F83B0020B3454A2D
:201C60002A32024412F8013C414A503A1370CAE751466868FEF73CFC04D95046A96AFEF723
:201C80002DFC38D83C498A4535DB3949092050391B9081F800B094F82410584641B3012923
:201CA00003D002292FD111E00CE0696D59B101291ED028D92E4894F825100170286CA0F183
:201CC000010028641FE094F825100EE0696D51B101290DD017D9264894F82620A1F1010126
:201CE000027069650FE094F82610214801700AE01F49087007E01E48A0F1500080F800B0F9
:201D00004FF000001B90206E00F101001E9086426CD16078502801D384F801B094F8340095
:201D200010B9207984F8340094F8350010B9607984F8350094F8360010B9A07984F8360027
:201D400094F8370010B9E07984F8370094F8380010B9207A84F8380094F8390010B9607AA8
:201D600084F8390094F83A0050B9A07A06E00000A0080020D80000200000204184F83A0008
:201D800094F83B0010B9E07A84F83B0094F82C0010B9207D84F82C0094F82D0010B9607D7D
:201DA00084F82D0094F82E0010B9A07D84F82E0094F82F0010B9E07D84F82F0094F83000E8
:201DC00010B9207E84F8300094F8310010B9607E84F8310094F8320010B9A07E84F832008C
:201DE00094F8330010B9E07E84F833001E9886423DD11B980A282CD2DFE800F02B0517FDE4
:201E0000FCFBFAF9F8F7FE4D51462868401C2860686AFEF7C9F968625146286FFEF7C4F960
:201E20002867A86C401CA86410E0F54D51466868401C6860A86AFEF7B7F9A8625146286FEB
:201E4000FEF7B2F92867E86C401CE864E86E401CE866EC480178EA4800F8781FE949503136
:201E600009784170616D491C6165A16D41601E9886420AD1E3494F22481CFEF763F9E149B3
:201E80004F225031481CFEF75DF91E9886427CD11899102302220DF8013018996846491CD4
:201EA000C9B20DF80120491CC9B24FEA1A620DF80120491CC9B24FEA1A420DF80120491CC6
:201EC000C9B24FEA1A224254491CC9B2CC4A00F801A0491CD56FC9B24FEA156C00F801C056
:201EE000491CC9B24FEA154C00F801C0491CC9B24FEA152C00F801C0491CC9B24554491CBE
:201F0000CDB211684FEA116C00F805C06D1CEDB24FEA114C00F805C06D1CEDB24FEA112C3D
:201F200000F805C06D1CEDB241556D1CE9B2556A4FEA156C00F801C0491CC9B24FEA154C56
:201F400000F801C0491CC9B24FEA152C00F801C0491CC9B24554491CC9B255684FEA156CE5
:201F600000F801C0491CC9B24FEA154C00F801C0491CC9B24FEA152C00F801C0491CC9B282
:201F80004554491CCDB2916A00E09FE14FEA116C00F805C06D1CEDB24FEA114C00F805C07B
:201FA0006D1CEDB24FEA112C00F805C06D1CEDB241556D1C9168EDB24FEA116C00F805C074
:201FC0006D1CEDB24FEA114C00F805C06D1CEDB24FEA112C00F805C06D1CEDB241556D1CE4
:201FE000E9B2D56A4FEA156C06E0E5E1D2E1BFE1ACE199E186E173E100F801C0491CC9B2F3
:020000040800F2
:202000004FEA154C00F801C0491CC9B24FEA152C00F801C0491CC9B24554491CD568C9B2C4
:202020004FEA156C00F801C0491CC9B24FEA154C00F801C0491CC9B24FEA152C00F801C0E7
:20204000491CC9B24554491C156BC9B24FEA156C00F801C0491CC9B24FEA154C00F801C001
:20206000491CC9B24FEA152C00F801C0491CC9B24554491CCDB211694FEA116C00F805C003
:202080006D1CEDB24FEA114C00F805C06D1CEDB24FEA112C00F805C06D1CEDB241556D1C23
:2020A000E9B2556B4FEA156C00F801C0491CC9B24FEA154C00F801C0491CC9B24FEA152CC5
:2020C00000F801C0491CC9B24554491C5569C9B24FEA156C00F801C0491CC9B24FEA154C43
:2020E00000F801C0491CC9B24FEA152C00F801C0491CC9B24554491CCDB2916B4FEA116C05
:2021000000F805C06D1CEDB24FEA114C00F805C06D1CEDB24FEA112C00F805C06D1CEDB204
:2021200041556D1C9169EDB24FEA116C00F805C06D1CEDB24FEA114C00F805C06D1CEDB2D1
:202140004FEA112C00F805C06D1CEDB241556D1CD16BEDB24FEA116C00F805C06D1CEDB28F
:202160004FEA114C00F805C06D1CEDB24FEA112C00F805C06D1CEDB241556D1CE9B2D56991
:202180004FEA156C00F801C0491CC9B200E02CE14FEA154C00F801C0491CC9B24FEA152C52
:2021A00000F801C0491CC9B24554491CCDB2116C4FEA116C00F805C06D1CEDB24FEA114C5B
:2021C00000F805C06D1CEDB24FEA112C00F805C06D1CEDB241556D1CE9B2156A4FEA156CCC
:2021E00000F801C0491CC9B24FEA154C00F801C0491CC9B24FEA152C00F801C0491C03E098
:20220000EC09002050080020C9B24554491C556CC9B24FEA156C00F801C0491CC9B24FEAF0
:20222000154C00F801C0491CC9B24FEA152C00F801C0491CC9B24554D56E491CC9B24FEA9C
:20224000156C00E049E000F801C0491CC9B24FEA154C00F801C0491CC9B24FEA152C00F8B6
:2022600001C0491CC9B24554491C156FC9B24FEA156C00F801C0491CC9B24FEA154C00E0F3
:20228000ACE000F801C0491CC9B24FEA152C00F801C0491CC9B24554491CC9B292F878503B
:2022A0004554491CC9B292F879204254491CC9B203224354491CC9B20A234254491CC8B2CE
:2022C00018905E226946624801F006F90120FEF753FB761CFF2E7EF670AF21B0BDE8F08FE2
:2022E0005C4D5146A868401CA860E86AFDF75CFFE8625146286FFDF757FF2867286D401C47
:202300002865A3E5534D5146E868401CE860286BFDF74AFF28635146286FFDF745FF28672D
:20232000686D401C686591E54A4D51462869401C2861686BFDF738FF68635146286FFDF79A
:2023400033FF2867A86D401CA8657FE5414D51466869401C6861A86BFDF726FFA8635146F1
:20236000286FFDF721FF2867E86D401CE8656DE5384D5146A869401CA861E86BFDF714FFE7
:20238000E8635146286FFDF70FFF2867286E401C28665BE52F4D5146E869401CE861286CD6
:2023A000FDF702FF28645146286FFDF7FDFE2867686E401C686649E5264D5146286A401CCA
:2023C0002862686CFDF7F0FE68645146286FFDF7EBFE2867A86E401CA86637E51E4988428A
:2023E00003DA322E01DC0121E170020E08F805206D1C020C08F805206D1C020A08F80520A5
:202400006D1C08F8050001206D1CFEF7B5FA761CFA2EFEF6B7AEE078A17808423FF45DAFD3
:20242000102188F80010022288F8012008F805106D1C032108F8051064234FF47B72074938
:20244000034801F049F884F802B084F803B044E7D0070020EC0900200000C842340300200A
:20246000044910B50A68024202D00860FEF76AFE10BD0000140401402DE9F84FDFF890A172
:2024800000220AF1040B144601274FF00F090BF1040E00BF0B6807FA04F52B40AB4274D160
:2024A000DFF870C14E68A6EB0C0866452BD00DDC032E34D005DC36B3012E19D0022E2FD1E3
:2024C0001BE0112E16D0122E2AD119E0B8F5881F19D006DCB8F5803F15D0B8F5801F1FD1FC
:2024E00011E0B8F5001F0ED0B8F5041F18D10AE0CA6815E0CA68121D12E0CA6808320FE0C9
:20250000CA680C320CE08A682AB1012A4FF0080203D0456104E0042202E0056100E0002251
:20252000FF2B01D8064601E000F104064FEA840501D9A5F12005D6F800C009FA05F82CEA75
:20254000080C02FA05F54CEA050CC6F800C04D68ED0057D5304DAE6946F00106AE61AD69E8
:2025600024F0030605F0010500952C4D06EB050CDCF80850A6074FEA167809FA08F6B5439A
:20258000274EB04202D1002610E03BE0254EB04201D101260AE0244EB04201D1022605E045
:2025A000224EB04201D1032600E0042606FA08F62E43CCF808604D68DAF80060ED035546A7
:2025C00001D51E4300E09E432E604D68DBF80060AD035D4601D51E4300E09E432E604D68FF
:2025E000DEF80060ED02754601D51E4300E09E432E604D68AD020E4D2E6801D51E4300E009
:202600009E432E60641C102CFFF444AFBDE8F88F0004014000001110001002400000014084
:2026200000080140000C014000100140001401400C0401400AB1016170470904FBE700004A
:202640000148806870470000E4020020024881680278114481607047E4020020074810B5D8
:20266000016841F010010160032000F071F8002000F006F800F024F8002010BD0020024069
:2026800070B50D4D04464FF47A712878B1FBF0F00A490968B1FBF0F000F07AFB48B9102C25
:2026A00007D200222146501E00F032F800206C6070BD012070BD0000E4020020F0020020B1
:2026C0000B4808B5816941F001018161816901F001010091C16941F08051C161C06900F016
:2026E000805000900348416821F0E061416008BD001002400000014000F01F020121914037
:202700004009800000F1E020C0F8001170470000F0B40E4B1B680C46C3F30223C3F1070512
:20272000042D00D90425191D072901D2002300E0DB1E012606FA05F1491E214099409E4095
:20274000761E16403143F0BC01F0C4B80CED00E0064900F0070208684FF6FF03184040EAA8
:202760000220034A10430860704700000CED00E00000FA052DE9F84305460078354CC00744
:2027800054D0E0690026C00008D4E06940F08050E061E069012600F0805000902E480168E1
:2027A000C90512D40168804641F480710160FFF747FF074605E000BFFFF742FFC01B6428E4
:2027C00023D8D8F80000C005F6D5206A10F4407021D0A98801F4407181421CD0206A1F49F7
:2027E000012220F440700A6000220A602062C00711D0FFF725FF074641F2883808E000BFD1
:20280000FFF71EFFC11B414502D90320BDE8F883206A8007F4D5206A696820F440700843E1
:2028200020621EB1E06920F08050E0612878800705D56068A96820F44040084360602878C4
:20284000C00605D56068E96820F48000084360600020DBE700100240007000404004424274
:202860002DE9F047DFF8548105460E46D8F8000000F00700B0420CD2D8F8001021F0070130
:202880003143C8F80010D8F8000000F00700B0426FD128684A4C810712D5400703D560687F
:2028A00040F4E06060602878000703D5606840F4605060606068A96820F0F0000843606015
:2028C0002878C00744D06868012816D02168022816D0890700294CDA616821F00301014304
:2028E0006160FFF7ADFE6968074641F2883001290ED00229814618D026E021688903E9E7A0
:202900008901E7E7FFF79CFEC11B494501D918E081466068C0F381000128F3D118E000BF2C
:20292000FFF78EFEC11B49450BD86068C0F381000228F5D10CE000BFFFF782FEC11B494551
:2029400002D90320BDE8F087606810F00C0FF3D1D8F80010404601F00701B1420BD9016817
:2029600021F0070131430160006800F00700B04201D00120E6E72878400705D56068E9687F
:2029800020F4E060084360602878000706D56068296920F4605040EAC100606000F03CF869
:2029A0006168084AC1F30311515CC840064908600020FFF765FE0020C4E700000020024022
:2029C00000100240B0610008F00200200148006870470000F002002004480549006849684D
:2029E000044AC1F30221515CC8407047F002002000100240C0610008044805490068496806
:202A0000044AC1F3C221515CC8407047F002002000100240C061000813A185B00FC98DE8A2
:202A20000F0015A0154A00680490516801F00C00042804D0082804D0114805B0704711489F
:202A4000FBE7C1F38343C9031DF8030009D5516804AAC1F34041515C0A4A5043B0FBF1F09C
:202A6000EBE709494843E8E702030405060708090A0B0C0D0E0F10100102000000100240EC
:202A800000127A000024F40000093D002DE9F84F04460078B94DC00748D06868C0F3810044
:202AA000012807D06868C0F38100022809D16868C00306D52868800338D5606800286FD051
:202AC00034E06068B0F5803F0BD010B1B0F5A02F11D0286820F480302860286820F48020A5
:202AE00002E0286840F480302860606888B1FFF7A7FD064609E0286840F480202860F0E765
:202B0000FFF79EFD801B642875D828688003F7D50CE0FFF795FD064605E000BFFFF790FDEA
:202B2000801B6428F0D828688003F7D42078944E80074FF001094FF000083BD5686810F057
:202B40000C0F07D06868C0F38100022809D16868C00306D42868800714D5206901281FD16C
:202B600010E02069B0B1C6F80090FFF769FD074605E000BFFFF764FDC01B0228C4D8286858
:202B80008007F7D52868616920F0F80040EAC10028600FE0C6F80080FFF752FD074606E068
:202BA000E9E000BFFFF74CFDC01B022823D828688007F7D4207800072CD57248A169D9B17E
:202BC000C0F80090FFF73CFD074604E0FFF738FDC01B02280FD8686A8007F7D56A484FF41C
:202BE000FA510068B0FBF1F0009000BF0098411E0091FAD20EE080E0C0F80080FFF720FD5A
:202C0000074604E0FFF71CFDC01B022875D8686A8007F7D42078400760D5E8690027C000B2
:202C200008D4E86940F08050E861E869012700F08050009055480168C90513D40168834668
:202C400041F480710160FFF7FBFC824606E000BFFFF7F6FCA0EB0A0064284ED8DBF8000091
:202C6000C005F5D5E06801280AD008B1052813D0286A20F001002862286A20F0040002E0FC
:202C8000286A40F001002862E06841F2883B98B1FFF7D6FC82460BE0286A40F00400286295
:202CA000EEE700BFFFF7CCFCA0EB0A0159455AD8286A8007F6D50CE0FFF7C2FC824605E02B
:202CC000FFF7BEFCA0EB0A0159454CD8286A8007F6D41FB1E86920F08050E861E06988B33B
:202CE0006968C1F38101022945D00228C6F8608004D0FFF7A5FC044638E034E0FFF7A0FC52
:202D0000074604E0FFF79CFCC01B02282BD828688001F7D4206AB0F5803F05D16868A16873
:202D200020F4003008436860D4E908010843696821F4741108436860C6F86090FFF780FC8D
:202D4000044606E015E000BFFFF77AFC001B022809D828688001F7D50BE000BFFFF770FC14
:202D6000001B022802D90320BDE8F88F28688001F4D40020F8E70120F6E7000000100240BC
:202D80000000424280044242F00200200070004010B5401EB0F1807F01D3012010BD4FF021
:202DA000E02460610F21601700F094FD0020A06107202061002010BD7047704730B590F895
:202DC0003C20012A20D0012280F83C20022380F83D3003685C6824F070045C6003685C68D9
:202DE0000D682C435C6003689C6824F080049C6003689C6849680C439C6080F83D200021CF
:202E000080F83C10084630BD022030BD10B5040003D094F83D0010B107E0012010BD002089
:202E200084F83C00204600F00DF8022084F83D00211D206801F084FA012084F83D00002075
:202E400010BD000008B5154A0168154891420ED1816941F4006181618069002200F4006050
:202E6000009011461B20FFF753FC1B2010E00D4A914211D1C16941F00201C161C0690022E9
:202E800000F00200009011461D20FFF741FC1D20BDE80840FFF730BC08BD0000002C0140AB
:202EA000001002400004004070B5044690F83C00012817D0012584F83C50022084F83D0030
:202EC0002068826822F0770222F47F4282600868502837D00DDC202859D005DC88B310289F
:202EE00041D151E0022070BD302853D040283AD13FE060282ED070280BD0B0F5805F03D0E3
:202F0000B0F5005F2FD110E02068816821F0070115E0CB68D1E90121206801F052FA2168E1
:202F2000886840F0770088601DE0CB68D1E90121206801F046FA2068816841F48041816005
:202F400011E01EE0CA684968206801F04CFA5021206806E0CA684968206801F055FA6021D5
:202F6000206801F038FA84F83D50002084F83C0070BDCA684968206801F035FA4021206824
:202F8000EFE700212068ECE710212068E9E720212068E6E730212068E3E7704770B50446F7
:202FA000006801694FF00005C943890715D4C168C943890711D4E91E016101202077206823
:202FC00080698007204602D0FFF7E7FF04E000F098F8204600F0C6F8257720680169C9435B
:202FE000490717D4C168C943490713D46FF004010161022020772068806910F4407F204611
:2030000002D0FFF7CAFF04E000F07BF8204600F0A9F8257720680169C943090716D4C16824
:20302000C943090712D46FF008010161042020772068C0698007204602D0FFF7AEFF04E012
:2030400000F05FF8204600F08DF8257720680169C943C90617D4C168C943C90613D46FF0B0
:2030600010010161082020772068C06910F4407F204602D0FFF791FF04E000F042F8204678
:2030800000F070F8257720680169C943C90708D1C168C943C90704D1891E0161204600F05C
:2030A00062F820680169C943090609D4C168C943090605D46FF0800101612046FFF77CFE97
:2030C00020680169C943490609D4C168C943490605D46FF040010161204600F045F820684C
:2030E0000169C94389060BD4C168C943890607D46FF0200101612046BDE87040FFF75DBE9F
:2031000070BD704710B50268044631B1042908D008291DD00C2908D11EE0D06840F00200D7
:2031200002E0D06840F00400D0600122206801F03DF90B492068884203D1416C41F40041A2
:2031400041642068016841F001010160002010BDD06840F00800E7E7D06840F01000E3E7D8
:20316000002C0140704770477047704770B5026804461068D168536910F00F0F50D003F08F
:20318000010501F4907635435DD0C20705D0CA0503D5E26B42F00102E263420705D5DA0779
:2031A00003D0E26B42F00202E263820705D5DA0703D0E26B42F00402E263020705D5DA07CF
:2031C00003D0E26B42F00802E263E26B002A33D0800604D5880602D5204601F03DF92068FB
:2031E0004069E16BC0F38010090700D428B3204601F024F92068416949061AD5416921F039
:2032000040014161606BA0B11B494163606BFDF789FE002810D0606B416BBDE8704008473E
:20322000830610D58B060ED52046BDE8704001F013B92046FFF799FF70BD2046FFF795FF23
:203240000020E06370BD030606D50B0604D52046BDE8704001F004BA4006F3D54806F1D584
:20326000D168204621F04001D160202184F8391000F08FF970BD00002D44000870B50400DF
:2032800004D094F83900002510B106E0012070BD84F83850204600F023F8242084F839000D
:2032A0002068C16821F40051C160204601F020F92068016921F4904101612068416921F0E9
:2032C0002A0141612068C16841F40051C160E563202084F8390084F83A00002070BD000089
:2032E00070B586B00024009401940294039403682E482D4E022103220515B34226D1836963
:2033000043F480438361836903F480430493836943F0040383618069254E00F004000490A4
:203320000802CDE90001039269463046FFF7A4F8CDE90054694630460294FFF79DF800220E
:2033400011462520FFF7E4F9252028E0194EB34227D1C36943F48023C361C36903F480236D
:203360000493836943F0080383618069CDE9005100F00800CDE903200F4D69462846FFF778
:203380007BF8E814CDE90004694628460294FFF773F8002211462720FFF7BAF92720FFF74A
:2033A000ABF906B070BD000000380140001002400008014000480040000C014090F83A30AB
:2033C000202B22D1F9B1F2B190F83830012B1CD081628285C2850021C163222280F83A20CE
:2033E00080F838100168CA6842F48072CA6001684A6942F001024A610068C16841F0200141
:20340000C160002070470120704702207047000070B500682949884219D12948294C002545
:20342000007822782849294B6668022810D010280AD0002A0BD062689854521C6260102888
:2034400013D0032811D017E0002AF4D1985570BD002AF0D19E5D102EF9D1A2688E54521C35
:20346000A260012222706560E5E71A4412F8023C102B06D00328EAD1A2688854521CA26011
:2034800070BD102813D00328FAD1A2688B54521C885496220C490E48FCF754FE96220D4905
:2034A0000948FCF74FFEA5606560257070BDA2688854521CC4E9015270BD000000380140F5
:2034C000C4020020CC020020020B00206C0A0020F0080020980B00202DE9F843044690F857
:2034E00039001F4616460D46202850D1A5B19EB194F8380001284AD0012084F838004FF056
:203500000008C4F83C80212084F83900FFF798F8A6848146E68426E00120BDE8F883E08CA1
:20352000401EE084A0684B46B0F5805F4FF000024FF080012046009703D001F0C2F8E8B98F
:203540000DE001F0BEF8C8B928882168C0F308004860206908B16D1C05E0AD1C03E02168D5
:2035600015F8010B4860E08C0028D8D14B46002240212046009701F0A4F808B10320CCE720
:20358000202084F8390084F838800020C5E70220C3E77047FEE700002DE9F0410025184FFB
:2035A00006462C46386CFCF73FFF2946FCF7FCFD05460120FDF7E0F9641C642CF2DD20469F
:2035C000FCF729FF01462846FCF778FE04463046FCF72AFF2146FCF73CFE01460948FCF7B7
:2035E0006DFE0949FCF738FEFCF749FF01F0C2F80022064BFCF7A0FEBDE8F041FCF752BF21
:20360000000000200000484200401C460088C34070B500240D4E2546306C05440120FDF7CA
:20362000ABF9641C642CF7DDB5FBF4F000EB80004000FCF7FEFE01F09DF80022044BFCF7EA
:203640007BFEBDE87040FCF701BF00000000002000002440FEB500241348009401941149B0
:2036600002940160891501254461C0E9021503260661C9024460C161FDF730FB0520009431
:20368000CDE9015069460848FDF732FA0220019069460548FDF72CFA694603480196FDF7B6
:2036A00027FAFEBD00240140200700202DE9F04786B00025554800950195029503958169F9
:2036C00041F010018161816901F010010491816941F020018161816901F0200104918169AC
:2036E00041F004018161816901F004010491816941F0080181618069454F00F008004FF67D
:20370000FF740490002221463846FEF793FFDFF8049100224FF204214846FEF78BFFDFF83C
:20372000F8A04FF4C858002241465046FEF782FF00224FF4F0714846FEF77CFF009401245C
:203740000326CDE90246694638460194FEF794FE324FF820CDE90007694602955046FEF7D2
:203760008BFE0096CDE9017569464846FEF784FE4FF2E430CDE90004CDE902466946484600
:20378000FEF77AFECDE90084CDE9024669465046FEF772FE0420CDE900076946029520484B
:2037A000FEF76AFE002204210620FEF7B1FF0620FEF7A2FF002204210720FEF7A9FF0720AC
:2037C000FEF79AFF002204210820FEF7A1FF0820FEF792FF002204210920FEF799FF092083
:2037E000FEF78AFF002204210A20FEF791FF0A20FEF782FF002204211720FEF789FF172083
:20380000FEF77AFF06B0BDE8F08700000010024000100140000C01400008014000002110FE
:203820000014014000B587B000211348009101910291039104910F4A0591026048F69F427C
:20384000C0E901216422C0E9032141618161FFF7DDFA4FF48050009069460748FFF724FB43
:20386000202004908020059004A90348FFF7A6FA07B000BD002C01405007002000B587B06D
:2038800000211248009101910291039104910E4A059102604722C0E901216322C0E90321F8
:2038A0008161FFF7B3FA4FF48050009069460748FFF7FAFA202004908020059004A90348F7
:2038C000FFF77CFA07B000BD0004004090070020FEE770470907090E002806DA00F00F0043
:2038E00000F1E02080F8141D704700F1E02080F800147047704700002DE9F047DFF8E881FF
:203900000127A8F1D804794D002604F584790FE0C01B18F800106A5C8A4208D119F80000C2
:2039200000F0B0FA2079C11B18F801002E547F1C20798742ECDDDFF8B081012708F10608E8
:2039400008F130090FE0C01B18F800106A5C8A4208D119F8000000F095FA6079C11B18F88B
:2039600001002E547F1C60798742ECDDDFF87881012708F10C0808F130090FE0C01B18F8AD
:2039800000106A5C8A4208D119F8000000F07AFAA079C11B18F801002E547F1CA079874232
:2039A000ECDDDFF84481012708F1120808F130090FE0C01B18F800106A5C8A4208D119F8CF
:2039C000000000F05FFAE079C11B18F801002E547F1CE0798742ECDDDFF80C81012708F1CB
:2039E000180808F130090FE0C01B18F800106A5C8A4208D119F8000000F044FA207AC11B6B
:203A000018F801002E547F1C207A8742ECDDDFF8D880012708F11E0808F130090FE0C01BDA
:203A200018F800106A5C8A4208D119F8000000F029FA607AC11B18F801002E547F1C607A19
:203A40008742ECDDDFF8A080012708F1240808F130090FE0C01B18F800106A5C8A4208D109
:203A600019F8000000F00EFAA07AC11B18F801002E547F1CA07A8742ECDDDFF86C80012782
:203A800008F12A0808F130090FE0C11B18F801002A5C824208D119F8010000F0F3F9E07A82
:203AA000C01B18F800106E547F1CE07A8742ECDD0E4D94F825005035295C814206D194F886
:203AC000270000F0DFF994F825002E5494F82600295C814206D194F82800263400F0D2F92A
:203AE00020782E54BDE8F087D8000020500800202DE9F05F984D994C994E9A4F4FF48079E5
:203B00004FF4006A4FF480584FF4005B4FF480434FF4004C272876D2DFE800F07514202D86
:203B20003945515D697575757575757575757575757682858995A1ADB17575BECAD7DBE8CE
:203B4000F7F5F400012211462846FEF773FD94F82900FCF711FF002201210AE0012202210C
:203B60002846FEF767FD94F82900FCF705FF002202212846D5E0012204212846FEF75AFD68
:203B800094F82900FCF7F8FE00220421F1E7012208212846FEF74EFD94F82900FCF7ECFEDC
:203BA00000220821E5E7012210212846FEF742FD94F82900FCF7E0FE00221021D9E701223C
:203BC00020212846FEF736FD94F82900FCF7D4FE00222021CDE7012240212846FEF72AFD6F
:203BE00094F82900FCF7C8FE00224021C1E7012280212846FEF71EFD94F82900FCF7BCFE88
:203C000000228021B5E7A4E0012249462846FEF711FD94F82900FCF7AFFE00224946A8E709
:203C20000122560201E00122960231462AE0012251462846FEF7FEFC94F82900FCF79CFE93
:203C40000022514695E7012241462846FEF7F2FC94F82900FCF790FE0022414689E70122C2
:203C600059462846FEF7E6FC94F82900FCF784FE002259467DE701221E46194602E0012226
:203C8000664661462846FEF7D5FC94F82900FCF773FE002231466CE7012241463046FEF783
:203CA000C9FC94F82900FCF767FE002241460AE0012259463046FEF7BDFC94F82900FCF711
:203CC0005BFE0022594630462BE001221D46194602E00122654661463046FEF7ABFC94F86F
:203CE0002900FCF749FE00222946ECE7012249463846FEF79FFC94F82900FCF73DFE002238
:203D000049460DE01DE010E0FFE7012251463846FEF790FC94F82900FCF72EFE002251460E
:203D20003846BDE8F05FFEF785BC012241463846FEF780FC94F82900FCF71EFE00224146D5
:203D4000EEE7012204213046FEF774FC00220421B9E7BDE8F09F00000010014000000020DF
:203D6000000C0140000801402DE9F047424C002201212046FEF75EFC002202212046FEF739
:203D800059FC002204212046FEF754FC002208212046FEF74FFC002210212046FEF74AFCF7
:203DA000002220212046FEF745FC002240212046FEF740FC002280212046FEF73BFCA515DB
:203DC000002229462046FEF735FC002261152046FEF730FC002221152046FEF72BFCE614D3
:203DE000002231462046FEF725FC4FF4805A002251462046FEF71EFC6714002239462046E1
:203E0000FEF718FC4FF48048002241462046FEF711FC4FF40049002249462046FEF70AFCDF
:203E2000164C002251462046FEF704FC002239462046FEF7FFFB002241462046FEF7FAFB1D
:203E4000002249462046FEF7F5FB29460C4D00222846FEF7EFFB002231462846FEF7EAFB4E
:203E6000002251462846FEF7E5FB2046BDE8F04700220421FEF7DEBB00100140000C014091
:203E8000000801402DE9F00302463448344B8515C61481144714334C4FF4804C4FF400490F
:203EA000192A58D2DFE802F0570D101316191C1F2225282B2E313336393C3E4245484B526A
:203EC0005400012211463DE0012202213AE00122042137E00122082134E00122102131E073
:203EE000012220212EE0012240212BE00122802128E00122294625E00122510222E00122C3
:203F000091021FE0012231461CE001221AE00122394617E00122614614E00122494611E062
:203F2000012201E00122394618460BE001226146FAE701224946F7E70122294601E00122C1
:203F400031462046BDE8F003FEF774BB0122F8E701220421E8E7BDE8F0037047001001400F
:203F6000000C0140000801402DE9F05FDFF894A2012211465046FEF75DFBA34C14F8290FA9
:203F8000FCF7FAFC002201215046FEF753FB012202215046FEF74EFB2078FCF7EDFC00226B
:203FA00002215046FEF746FB012204215046FEF741FB2078FCF7E0FC002204215046FEF7CA
:203FC00039FB012208215046FEF734FB2078FCF7D3FC002208215046FEF72CFB01221021FC
:203FE0005046FEF727FB2078FCF7C6FC002210215046FEF71FFB012220215046FEF71AFBCB
:020000040800F2
:204000002078FCF7B9FC002220215046FEF712FB012240215046FEF70DFB2078FCF7ACFC1B
:20402000002240215046FEF705FB012280215046FEF700FB2078FCF79FFC002280215046A9
:20404000FEF7F8FA4FF4807B012259465046FEF7F1FA2078FCF790FC002259465046FEF7A0
:20406000E9FA0122550229465046FEF7E3FA2078FCF782FC002229465046FEF7DBFA0122EF
:20408000950229465046FEF7D5FA2078FCF774FC002229465046FEF7CDFA0122D502294679
:2040A0005046FEF7C7FA2078FCF766FC002229465046FEF7BFFA4FF480590122494650468E
:2040C000FEF7B8FA2078FCF757FC002249465046FEF7B0FA0122560331465046FEF7AAFA53
:2040E0002078FCF749FC002231465046FEF7A2FA0122970339465046FEF79CFA2078FCF748
:204100003BFC002239465046FEF794FA4FF40048012241465046FEF78DFA2078FCF72CFCB4
:20412000002241465046FEF785FADFF8E0A0012249465046FEF77EFA2078FCF71DFC0022FA
:2041400049465046FEF776FA012231465046FEF771FA2078FCF710FC002231465046FEF78A
:2041600069FA012239465046FEF764FA2078FCF703FC002239465046FEF75CFA012241469B
:204180005046FEF757FA2078FCF7F6FB002241465046FEF74FFA1E4E012259463046FEF7B1
:2041A00049FA2078FCF7E8FB002259463046FEF741FA012229463046FEF73CFA2078FCF729
:2041C000DBFB002229463046FEF734FA012249463046FEF72FFA2078FCF7CEFB0022494694
:2041E0003046FEF727FA012204215046FEF722FA2078FCF7C1FB5046BDE8F05F002204212C
:20420000FEF718BA0010014000000020000C0140000801407047FEF719BA30B593B02821E0
:204220006846FBF7B6FF14210AA8FBF7B2FF002501200F95109511950104420412958DE803
:20424000070004904FF4E010CDE90810022407946846FEF71BFC0AA90F2081E83100600269
:204260000D904FF4E0600E9002210AA8FEF7F8FA4FF4404011900F940FA8FEF77BFA13B0D9
:2042800030BD00000D48016841F00101016041680B4A1140416001680A4A11400160016817
:2042A00021F480210160416821F4FE0141604FF41F0181600449C0030860704700100240C4
:2042C0000000FFF8FFFFF6FE08ED00E07047000038B51348FCF78BFC124C009004F11001B3
:2042E00011486369E26801F02DFF10490860E0680021401CE0606269904200D3E1600C4867
:204300000C4B0268521C02601C68012C03D10A4C226001601960BDE838400848FEF73EBE77
:2043200020070020CC020020300C002040000020C8020020540000205800002090070020FF
:20434000F0B50268164B174C174D4FF08047984205D0B84203D0A04201D0A84203D122F021
:2043600070064A683243984205D0B84203D0A04201D0A84203D122F44074CA68224322F040
:2043800080044A69224302608A68C2620A688262984201D10969016301214161F0BD0000C0
:2043A000002C0140000400400008004010B50123046A8B409C430462036A8A4013430362AB
:2043C00010BD10B5846842EA032224F47F440A432243826010BD826822F070020A4342F0E5
:2043E00007018160704710B5036A046A24F001040462846924F0F00444EA021423F00A02A6
:204400000A438461026210BD10B5036A23F0100303628369046A23F4704343EA023224F0E3
:20442000A00343EA01118261016210BD10B5406A0021C185C184FEF798FE10BD0168CA6879
:2044400022F49072CA6001684A6922F001024A61202180F83A10704710B590F83A102229A2
:2044600001D0022010BD8168B1F5805F11D00169002901681FD0496801F07F03816A4A1CCD
:2044800082620B70C18D491E0904090CC18518D02BE00269816A002A0268526805D0D2B2B0
:2044A0000A80816A491C8162ECE7C2F308020A80816A891CF7E74A68816A4B1C83620A7052
:2044C000E0E70168CA6822F02002CA600168CA6822F48072CA6001684A6922F001024A6173
:2044E000202180F83A10FEF793FF002010BD00002DE9F041044600680169E26821F44051F2
:20450000114301612169A0680843616908432168CA6841F20C639A430243CA602068416918
:20452000A26921F44071114341614C4920686425322688423CD1FEF75FFA00EBC00101EBF9
:20454000001061688900B0FBF1F7FEF755FA00EBC00101EB00106168B0468900B0FBF1F0A6
:20456000B0FBF5F06FF01801484307EB800106EB0110B0FBF5F000F0F006FEF73DFA00EBA6
:20458000C00101EB001061688900B0FBF1F0B0FBF5F006EB0016FEF72FFA00EBC00101EB33
:2045A000001061688900B0FBF1F7FEF725FA3BE0FEF712FA00EBC00101EB001061688900DC
:2045C000B0FBF1F7FEF708FA00EBC00101EB00106168B0468900B0FBF1F0B0FBF5F06FF0E6
:2045E0001801484307EB800106EB0110B0FBF5F000F0F006FEF7F0F900EBC00101EB0010A6
:2046000061688900B0FBF1F0B0FBF5F006EB0016FEF7E2F900EBC00101EB0010616889005B
:20462000B0FBF1F7FEF7D8F900EBC00101EB001061688900B0FBF1F0B0FBF5F06FF0180193
:20464000484307EB800108EB0110B0FBF5F0216800F00F0030448860BDE8F0810038014055
:2046600090F83910212901D0022070478168B1F5805F016A0BD04A1C02620268097851605B
:20468000C18C491E0904090CC1840ED017E009880268C1F30801516001690029016A02D0F1
:2046A000491C0162ECE7891CFBE70168CA6822F08002CA600068C16841F04001C16000203B
:2046C00070472DE9F041984617460E460446069D1DE0681C1BD02DB1FDF7B2FFA0EB0800DE
:2046E000A84214D92068C16821F4D071C1602068416921F001014161202084F8390084F863
:204700003A00002084F838000320BDE8F0812068006836EA000004D00020B842D9D000208B
:20472000F3E70120F9E7000010B50548FEF71EFDBDE81040012203490148FEF73FBE0000DD
:20474000D0070020C40200200148FEF70FBD000010080020FEE702E008C8121F08C1002A7F
:20476000FAD170477047002001E001C1121F002AFBD170472DE9F041C1F30A52A2F2FF363F
:204780002F4A304B0D460446142E2FDA002E12DAFBF74CFF00221346FBF7F0FF4CD2002D3F
:2047A000BCBF4FF00045002446DB55EA040018BF254D19D140E0DFF894C02CFA06F705EAE2
:2047C000070C5CEA040C08BFBDE8F081FBF72EFF00221346FBF7D2FF2ED2002D03DD4FF4E6
:2047E0008010F0400544BD43002425E0332EC8BFBDE8F081A6F1140C4FF0FF3727FA0CF739
:204800003C4208BFBDE8F081FBF7B4FF00221346FBF7B4FF10D2002D0DDD142E08BF6D1CED
:2048200009D0C6F13400012101FA00F02044A04238BF6D1C0446BC4329462046BDE8F081AD
:204840009C7500883CE4377E0000F03FFFFF0F00D2B0FDF703FFFCF76DF8FFF7DEFCFEF719
:2048600025FFFA48F8494FF4E13600240160C0E901640C27C460C0E904478461C461FEF75A
:20488000FDFCFEF7E7FEF14DF148403D2860C5E90164EC60C5E90447AC612846EC61FEF7B4
:2048A000EDFCFEF7BFFFFEF7E9FF0021A5F14000FEF728FCA5F1B000FCF7D4FA2520FDF72F
:2048C0001BFF2868C16841F02001C160E148006801287CD001F044FCDF4D0024E00777D0DD
:2048E000012220212846FDF7A5FE3220FCF766FB012240212846FDF79DFE3220FCF75EFB8A
:20490000012280212846FDF795FE3220FCF756FB641C282CE2DB4FF40078012244464146C8
:204920002846FDF787FE4FF4FA70FCF747FB002221462846FDF77EFE6420FCF73FFB012273
:2049400021462846FDF776FEC820FCF737FB002221462846FDF76EFE6420FCF72FFBBF4C0A
:204960008021207D84F82C00607D84F82D00A07D84F82E00E07D84F82F00207E84F83000B2
:20498000607E84F83100A07E84F83200E07E84F83300207984F83400607984F83500A079C7
:2049A00084F83600E07984F83700207A84F83800607A84F83900A07A84F83A00E07A84F8B6
:2049C0003B0027A8FBF7E5FBA04EE03601E01AE0A1E24FF00309B07801287CD002287BD03C
:2049E00003287AD00428F6D1F07812380828F2D2DFE810F03A0A770A0800EA0A1F0BCB0A22
:204A00005A0B7E0BE7E74FF4A67292499448FBF799FB934FDFF844C27868CCF85C00B86863
:204A2000CCF86000F868CCF864003869CCF868007869CCF86C00B869CCF87000F869CCF872
:204A40007400386ACCF87800786ACCF87C00A7F1F800B96A0160F96A4160396B8160796B61
:204A6000C160B96B0161F96B4161396C8161796CC161B96C0162F96C4162396D8162796DFC
:204A8000C162B96D016397F8BC008CF8040097F8BD608CF8056097F8BE508CF8065097F8FB
:204AA000BF408CF8074097F8C0308CF8083097F8C1208CF8092097F8C21081468CF80A100E
:204AC00097F8C3008CF80B0097F8C4808CF80C8097F8C58002E030E244E2FCE38CF80D8034
:204AE00097F8C6808CF80E8097F8C7808CF80F8097F8C8808CF8108097F8C9808CF811800E
:204B000097F8CA808CF8128097F8CB808CF8138097F8CC808CF81480C24697F8CD808CF85A
:204B20001580C34697F8CE808CF81680C64697F8CF808CF81780CDF8188097F8D0808CF81B
:204B40001880CDF8148097F8D1808CF81980CDF8108097F8D2808CF81A80CDF80C8097F833
:204B6000D3708CF81B70029700270BE0DFF8F0C0BC449CF8D480DFF8E8C0ACF1400C0CF85D
:204B800007807F1C5745F1DDDA460027DFF8D0B00BE000BF0BEB070C9CF8DC80DFF8C0C0F1
:204BA000ACF1380C0CF807807F1C5745F2DDF246DFF8ACE00027AEF1300E06E00BEB070CF5
:204BC0009CF8E4800EF807807F1C5745F6DD0027DFF888E0DDF818A00BE000BF0BEB070CA0
:204BE0009CF8EC80DFF878C0ACF1280C0CF807807F1C5745F2DD0027DDF814A00BE000BFEA
:204C00000BEB070C9CF8F480DFF854C0ACF1200C0CF807807F1C5745F2DD0027DDF810A092
:204C20000BE000BF0BEB070C9CF8FC80DFF830C0ACF1180C0CF807807F1C5745F2DD002771
:204C4000DDF80CA017E00000004800401008002000380140009C0108000C01400000002091
:204C6000780100200BEB070C9CF80481DFF8A4C50CF807807F1C5745F4DDDFF898C500274B
:204C80000CF1080CDDF808A007E000BF0BEB070898F80C810CF807807F1C5745F6DDDFF852
:204CA00074C50027ACF1900C07E000BF0BEB070898F85C800CF807807F1C4F45F6DDDFF8E0
:204CC00054C50027ACF18A0C07E000BF0BEB070898F862800CF807807F1CB742F6DDDFF87B
:204CE00034C50027ACF1840C07E000BF0BEB070898F868800CF807807F1CAF42F6DDDFF883
:204D000014C50027ACF17E0C07E000BF0BEB070898F86E800CF807807F1CA742F6DDDFF88A
:204D2000F4C40027ACF1780C07E000BF0BEB070898F874800CF807807F1C9F42F6DDDFF893
:204D4000D4C40027ACF1720C07E000BF0BEB070898F87A800CF807807F1C9742F6DDDFF89B
:204D6000B4C40027ACF16C0C07E000BF0BEB070898F880800CF807807F1C8F42F6DDDFF8A3
:204D800094C40027ACF1660CDA4606E00AEB070898F886800CF807807F1C8742F6DDDFF84C
:204DA00074C40027ACF1600C07E000BF0AEB070898F88C800CF807807F1C4F45F6DDDFF8E1
:204DC00054C40027ACF15A0C07E000BF0AEB070898F892800CF807807F1CB742F6DDDFF87C
:204DE00034C40027ACF1540C564606E006EB070898F898800CF807807F1CAF42F6DDDFF8AC
:204E000014C400257746ACF14E0C06E006EB050898F89E800CF805806D1CA542F6DDFD4D39
:204E20000024483D07E000BF06EB040C9CF8A4C005F804C0641C9C42F6DDF64C0023423C55
:204E400004E0F51895F8AA50E5545B1C9342F8DDF04B00223C3B04E0B41894F8B0409C5490
:204E6000521C8A42F8DDEB4A0021363A04E0731893F8B6305354491C8142F8DD96F8140136
:204E800007F81C0F96F81501787096F81601B87096F81701F87096F81801387196F8190189
:204EA000787196F81A01B87196F81B01F87196F81C01387296F81D01787296F81E01B87262
:204EC00096F81F01F87296F820013873D148D6F82411E8384163D6F828118163D6F82C118A
:204EE000C163D6F830110164D6F834114164D6F838118164D6F83C11C164D6F840110165A1
:204F0000D6F84411416596F84801787396F849018EF82A00E0E4002220212846FDF78AFB70
:204F20003220FCF74BF8002240212846FDF782FB3220FCF743F80022E3E4F078032808D0B3
:204F4000052804D0072802D009287FF45BAD207001E084F80090B049402201F2FC50FBF79A
:204F6000F1F838E5F07804280CD0062857D0082871D01128F5D12070802227A9A748FBF713
:204F8000E1F8E8E70420207030797179A14F00EB0120B179103700EB0140F17900EB0160D3
:204FA0007860307A717A00EB0120B17A00EB0140F17A00EB0160B86001F0D2F87868E06572
:204FC000B86820660122474641462846FDF732FB6420FBF7F3FF002239462846FDF72AFBD5
:204FE0006420FBF7EBFF8D4810226638022102704170E16D0B0E83700B0CC3700B0A037139
:205000004171216E0B0E83710B0CC3710B0A0372417282720A2380F80B900C2269E30620E6
:205020002070DFF8F0A123790420AAF1900A00229B460AF1A00108E0375C01EB020C401C13
:205040008CF85C700AF80270521C9A42F4DB6379002247930DE052E301EB020C375C8CF868
:205060006270DFF8B0C1401CACF18A0C0CF80270521C9A42F0DBA379002249930CE001EB0A
:20508000020C375C8CF86870DFF888C1401CACF1840C0CF80270521C9A42F0DBE379002261
:2050A00048930CE001EB020C375C8CF86E70DFF864C1401CACF17E0C0CF80270521C9A42FB
:2050C000F0DB277A00224D970CE001EB020C335C8CF87430DFF83CC1401CACF1780C0CF86C
:2050E0000230521CBA42F0DB637A00224C930CE001EB020C375C8CF87A70DFF818C1401C78
:20510000ACF1720C0CF80270521C9A42F0DBA37A00224E930CE001EB020C375C8CF88070DC
:20512000DFF8F0C0401CACF16C0C0CF80270521C9A42F0DBE37A00229E460CE001EB020CA3
:20514000375C8CF88670DFF8CCC0401CACF1660C0CF80270521C9A42F0DB00225B460CE03A
:2051600001EB020C375C8CF88C70DFF8A8C0401CACF1600C0CF80270521C9A42F0DBDFF81C
:2051800094B00022ABF15A0B479B08E0375C01EB020C401C8CF892700BF80270521C9A42B0
:2051A000F4DB0022499B0CE001EB020C375C8CF89870DFF860C0401CACF1540C0CF802704F
:2051C000521C9A42F0DB0022489B0CE001EB020C375C8CF89E70DFF83CC0401CACF14E0C84
:2051E0000CF80270521C9A42F0DB00224D9B0CE001EB020C375C8CF8A470DFF818C0401CFE
:20520000ACF1480C0CF80270521C9A42F0DB00224C9B10E068010020F4020020EC09002065
:2052200001EB020C375C8CF8AA70DFF8A0C4401C0CF80270521C9A42F2DB00224E9B0CE028
:2052400001EB020C375C8CF8B070DFF880C4401C0CF1060C0CF80270521C9A42F0DB0022EA
:2052600077460CE001EB020C335C8CF8B630DFF85CC4401C0CF10C0C0CF80230521CBA428A
:20528000F0DB325C81F81D21401C04F8252F325C81F81E21401C6270325C81F81F21401C3B
:2052A000A270325C81F82021401CE270325C81F84821401C2271325C401C335C401C02EBC5
:2052C0000322335C401C02EB0342335C02EB0362FE4FA63F00E0FDE3C1F82421401C7A6382
:2052E000325C401C335C401C02EB0322335C401C02EB0342335C401C02EB0362C1F828216B
:20530000BA63325C401C335C401C02EB0322335C401C02EB0342335C401C02EB0362C1F876
:205320002C21FA63325C401C335C401C02EB0322335C401C02EB0342335C401C02EB036282
:20534000C1F830213A64325C401C335C401C02EB0322335C401C02EB0342335C401C02EBC9
:205360000362C1F834217A64325C401C335C401C02EB0322335C401C02EB0342335C401CED
:2053800002EB0362C1F83821BA64325C401C335C401C02EB0322335C02EB0342401C335CF8
:2053A000401C02EB0362C1F83C21FA64325C401C335C401C02EB0322335C401C02EB0342C7
:2053C000335C401C02EB0362C1F840213A65325C401C335C401C02EB0322335C401C02EB18
:2053E0000342305C02EB0060C1F84401786500F0B7FE0122474641462846FDF71BF96420DE
:20540000FBF7DCFD002239462846FDF713F96420FBF7D4FDAE4910200022087002204870D0
:2054200014F8213CD446253C489304E01CF802700F54401C521C9A42F8DBA44F0022637976
:20544000483F499306E000BF17F802C001F800C0401C521C9A42F7DB9C4F0022A379423F98
:205460004A9305E017F802C001F800C0401C521C9A42F7DB954F0022E3793C3F4C9305E0C7
:2054800017F802C001F800C0401C521C9A42F7DB8E4F0022237A363F479305E017F802C069
:2054A00001F800C0401C521C9A42F7DB874F0022637A303F4B9305E017F802C001F800C02A
:2054C000401C521C9A42F7DBA37A804F00229E462A3F05E017F802C001F800C0401C521CC0
:2054E0009A42F7DBE37A794F00229A46243F05E017F802C001F800C0401C521C9A42F7DB8D
:20550000724F00221E3F489B06E000BF17F802C001F800C0401C521C9A42F7DB0022499BBB
:2055200005E000BF1BF802700F54401C521C9A42F8DBDFF898C10022ACF1120C4A9B04E090
:205540001CF802700F54401C521C9A42F8DBDFF87CC10022ACF10C0C4C9B04E01CF80270AD
:205560000F54401C521C9A42F8DBDFF860C10022ACF1060C479B04E01CF802700F54401C7B
:20558000521C9A42F8DB0022DFF840C14B9B04E01CF802700F54401C521C9A42F8DBDFF8F1
:2055A0002CC1002273460CF1060C04E01CF802700F54401C521C9A42F8DB444F0022534680
:2055C0000C3705E017F802C001F800C0401C521C9A42F7DB94F825200A54401C94F8262044
:2055E0000A54401C94F827200A54401C94F828200A54401C94F829200A54344A401CA63AE9
:20560000536B1F0E0F54401C1F0C0F54401C1F0A0F54401C0B54936B401C1F0E0F54401C69
:205620001F0C0F54401C1F0A0F54401C0B54D36B401C1F0E0F54401C1F0C0F54401C1F0AA0
:205640000F54401C0B54136C401C1F0E0F54401C1F0C0F54401C1F0A0F54401C0B54536C75
:20566000401C1F0E0F54401C1F0C0F54401C1F0A0F54401C0B54936C401C1F0E0F54401C6A
:205680001F0C0F54401C1F0A0F54401C0B54D36C401C1F0E0F54401C1F0C0F54401C1F0A3F
:2056A0000F54401C0B54136D401C1F0E0F54401C1F0C0F54401C1F0A0F54401C0B54526D14
:2056C000401C130E0B54130C401C03E026010020860900200B54401C130A0B54401C0A54A9
:2056E000401C10220A54401C01F80090401C82B20A23FE49A1F5DB70FDF7EEFE2BE40820DD
:20570000FA4920708022663107A8FAF71BFD16F8040F717800EB0120B17800EB0140F178F1
:2057200000EB0161F248C16061663179727901EB0221B27901EB0241F27901EB02610161E0
:20574000A166317A727A01EB0221B27A01EB0241F27A01EB02614161E166317B727B01EB18
:205760000221B27B01EB0241F27B01EB026181612167317C727C01EB0221B27C01EB02417D
:20578000F27C01EB0261C1616167317D727D01EB0221B27D01EB0241F27D01EB0261016237
:2057A000A167317E727E01EB0221B27E01EB0241F27E01EB02614162E167317F727F01EB9D
:2057C0000221B27F01EB0241F27F01EB0262A0F1F80182620A6096F8202016F8213F02EB84
:2057E0000322737802EB0342B37802EB0362C2624A60F27816F8043F02EB0322737802EB77
:205800000342B37802EB036202638A60F27816F8043F02EB0322737802EB0342B37802EB75
:2058200003624263CA60F27816F8043F02EB0322737802EB0342B37802EB036282630A617D
:20584000F27816F8043F02EB0322737802EB0342B37802EB0362C2634A61F27816F8043F56
:2058600002EB0322737802EB0342B37802EB036202648A61F27816F8043F02EB0322737873
:2058800002EB0342B37802EB03624264CA61F27816F8043F02EB0322737802EB0342B37873
:2058A00002EB036282640A62F27816F8043F02EB0322737802EB0342B37802EB0362C264B7
:2058C0004A62F27816F8043F02EB0322737802EB0342B37802EB036202658A62F27880F880
:2058E000CC204D2100232275493E0CE000EB030C775C8CF8D470DFF8F8C1491CACF1400CAE
:205900000CF803705B1C9342F0DB735C80F8CD3000276375491C0CE000EB070C725C8CF815
:20592000DC20DFF8CCC1491CACF1380C0CF807207F1C9F42F0DB735C80F8CE300027A375CB
:20594000491C0CE000EB070C725C8CF8E420DFF8A0C1491CACF1300C0CF807207F1C9F4285
:20596000F0DB735C80F8CF300027E375491C0CE000EB070C725C8CF8EC20DFF874C1491C79
:20598000ACF1280C0CF807207F1C9F42F0DB735C80F8D03000272376491C0CE000EB070C6E
:2059A000725C8CF8F420DFF848C1491CACF1200C0CF807207F1C9F42F0DB735C80F8D130B9
:2059C00000276376491C0CE000EB070C725C8CF8FC20DFF81CC1491CACF1180C0CF8072005
:2059E0007F1C9F42F0DB735CDFF804B180F8D2300027A376ABF1100B491C07E000EB070C4A
:205A0000491C8CF804210BF807207F1C725C9F42F4DBDFF8DCA080F8D3200023E276AAF161
:205A2000080A491C08E0775C00EB030C491C8CF80C710AF803705B1C9342F4DB725C00F87E
:205A4000BC2F491C04F8042F725C4270491C6270725C8270491CA270725CC270491CE27022
:205A6000725C0271491C2271725C4271491C6271725C8271491CA271725CC271491CE27142
:205A8000725C80F85820491C2276725C80F85920491C6276725C80F85A20491CA276725C44
:205AA00080F85B20491CE276725C80F85C20491C2277725C80F85D20491C6277725C80F82F
:205AC0005E20491CA277725C80F85F20491CE277715C00E0AFE180F8601084F8201000F086
:205AE0003FFB4FF0100E014B04E00000860900207801002083F800E002205870206E010EB5
:205B00009970010CD970010A19715871606E010E9971010CD971010A19725872A06E010E0D
:205B20009972010CD972010A19735873E06E010E9973010CD973010A19745874206F010EDC
:205B40009974010CD974010A19755875606F010E9975010CD975010A19765876A06F010EAB
:205B60009976010CD976010A19775877FE4801680A0E9A770A0CDA770A0A83F8202003F847
:205B8000211F41680A0E5A700A0C9A700A0ADA701B1D03F8011B81680A0E03F8012B0A0C2F
:205BA00003F8012B0A0A03F8032B03F8021CC1680A0E03F8012C0A0C03F8012B0A0A03F8B3
:205BC000032B03F8021C01690A0E03F8012C0A0C03F8022B0A0A03F8012C197041690A0E0F
:205BE0005A700A0C9A700A0ADA7003F8041F81690A0E5A700A0C9A700A0ADA7003F8041FD7
:205C0000C1690A0E5A700A0C9A700A0ADA7003F8041F016A0A0E5A700A0C9A700A0ADA7011
:205C200003F8041F416A0A0E5A700A0C9A700A0ADA7003F8041F806A010E5970010C997045
:205C4000010AD9701871227C5A71DFF81CC34B200021453B0CF1B80C241F04E01CF80170CF
:205C60001F54401C491C9142F8DB627DDFF8F8C21A5400210CF1C00C401C04E01CF80170BD
:205C80001F54401C491C9142F8DBA27DDFF8D8C21A5400210CF1C80C401C04E01CF8017075
:205CA0001F54401C491C9142F8DBE27DDFF8B8C21A5400210CF1D00C401C04E01CF801702D
:205CC0001F54401C491C9142F8DB227EDFF898C21A5400210CF1D80C401C04E01CF80170E4
:205CE0001F54401C491C9142F8DB627EDFF878C21A5400210CF1E00C401C04E01CF801709C
:205D00001F54401C491C9142F8DBA27E1A540021DC46401C05E000BF1CF801701F54401C84
:205D2000491C9142F8DBE27E1A540021D446401C05E000BF1CF801701F54401C491C9142C3
:205D4000F8DB14F8041F1954401C61781954401CA1781954401CE1781954401C21791954CB
:205D6000401C61791954401CA1791954401CE1791954401C217E1954401C617E1954401C0E
:205D8000A17E1954401CE17E1954401C217F1954401C617F1954401CA17F1954401CE17F98
:205DA0001954401C94F820101954401C6F4903F800E0401C03F80090401C82B20A23A1F5C8
:205DC000DB70FDF789FB207C84F82800607C84F82900A07C84F82A00E07C84F82B00207DDD
:205DE00084F82C00607D84F82D00A07D84F82E00E07D84F82F00207884F83000607884F80E
:205E00003100A07884F83200E07884F83300207984F83400607984F83500A07984F83600E6
:205E2000E07984F837005148802207A96630241FFAF788F906E0F078012802D002287EF43B
:205E4000CAAD20700122474641462846FCF7F2FB6420FBF7B3F8002239462846FCF7EAFBAE
:205E60006420FBF7ABF849E4122041492070402201F2FC50FAF766F9FDF7CAFB01463A481D
:205E80000127F83082464165FDF7C2FB7F1C0146CAF85400052FF7DB334FF96200F060F96F
:205EA000012241462846FCF7C5FB6420FBF786F8002241462846FCF7BDFB6420FBF77EF875
:205EC0002A49102202200A704870F86A030E8B70030CCB70030A0B7148718A7181F80790C4
:205EE0004AE0132022492070402201F2FC50FAF729F9DFF874A0DAF82C00FDF74DFB01462A
:205F00000AF1F80001278346C0F85810DAF82C00FDF742FB7F1C0146CBF85800052FF5DB4D
:205F20005746CAF8301000F01BF9012241462846FCF780FB6420FBF741F800224146284672
:205F4000FCF778FB6420FBF739F808481022022102704170396B0B0E83700B0CC3700B0A5D
:205F600003714171827105E08000002086090020F402002080F807906F490A230822A1F50A
:205F8000DB70FDF7A9FAFEF726BD172020700120A0700020E07084F82B0001224746414601
:205FA0002846FCF747FB6420FBF708F8002239462846FCF73FFB6420FBF700F84FF47B71EF
:205FC0005E48FAF7E6F84EE7152020703079717900EB0120B17900EB0140F17900EB0160A7
:205FE000E063282802D2FDF783FD07E0292802D02A2803D00BE0FDF7B7FF08E04F49402220
:020000040800F2
:20600000403901F2FC50FAF79DF80020E0630122474641462846FCF70DFB6420FAF7CEFFFD
:20602000002239462846FCF705FB6420FAF7C6FFA9E74249162020704039402201F2FC5029
:20604000FAF780F83E4F206CF96A401AFAF7ECF9396BFAF701F9E0640122474641462846B3
:20606000FCF7E8FA6420FAF7A9FF002239462846FCF7E0FA6420FAF7A1FF2F491022022071
:206080000A704870E06C030E8B70030CCB70030A0B7148718A7181F807900A230822A1F5F2
:2060A000DB70FDF719FA20E0182020702248216D1022A1640270022343700B0E83700B0C2A
:2060C000C3700B0A03714171827180F8079001460A230822A0F5DB70FDF7FEF91749402225
:2060E000403901F2FC50FAF72DF80020E0644AE7162020701048216C1022A16402700223C4
:2061000043700B0E83700B0CC3700B0A03714171827180F8079001460A230822A0F5DB70BB
:20612000FDF7DAF905494022403901F2FC50FAF709F80020A06426E7860900203403002007
:206140008000002070B550F822600D68049CAD1B25440D6040F822400868B0FBF3F070BD38
:20616000F0B585B0FAF7DAFF0020049000900E4E0120CDE9026004A96846FAF731FF0B4DCE
:2061800000244FF4A67700BF06EB840155F8242000230220FAF782FF641CBC42F4D3FAF7C8
:2061A00073FF05B0F0BD0000009C01087801002000000000000000000102030406070809A5
:2061C0000000000001020304E861000800000020F40200001208000864620008F402002048
:2061E0002C150000664700081102FF0101773201326432C81808CDCC9F42CDCC95041A8BEA
:20620000041E81429A996F041A5B041A47042333421AA0041A96041A8C041A82041A700433
:206220001A5C041A48041A34041A2028251F4201076E0AD7A33D0101E80802030405060700
:206240000810080911080C161A242832369659224103C450501BF401D63182100400A24ABA
:046260000400000036
:00000001FF
