:020000040800F2
:10000000B01A002001010008F73500084532000849
:10001000F53500080D090008B9430008000000008C
:10002000000000000000000000000000793E000811
:100030007D09000800000000193600087B3E00081A
:100040001B0100081B0100081B0100081B01000820
:100050001B0100081B0100087F0900088509000832
:100060008B09000891090008970900081B01000886
:100070001B0100081B0100081B0100081B010008F0
:100080001B0100081B010008150800081B010008DF
:100090001B0100081B0100081B0100089D09000846
:1000A0001B0100081B0100081B010008313F00086C
:1000B0001B010008353F00081B0100081B01000858
:1000C0001B0100081B0100081B0100081B010008A0
:1000D0001B0100088D4300081B010008AD43000808
:1000E0001B0100081B0100081B010008DFF80CD0F1
:1000F00000F05CFB00480047B5440008B01A00203F
:100100000648804706480047FEE7FEE7FEE7FEE7B1
:10011000FEE7FEE7FEE7FEE7FEE7FEE7E93E000852
:10012000ED000008202A04DB203A21FA02F0002129
:10013000704721FA02F3D040C2F1200291400843F7
:100140001946704710B5431A934209D2831888188C
:1001500003E010F8011D03F8011D521EF9D210BD75
:1001600040EA01039B0703D009E008C9121F08C039
:10017000042AFAD203E011F8013B00F8013B521EB9
:10018000F9D210BDD2B201E000F8012B491EFBD21A
:1001900070470022F6E710B513460A460446194692
:1001A000FFF7F0FF204610BDF0B480EA0102D40F43
:1001B0004200B2EB410F02D20246084611464A0005
:1001C00042D0C30DDDB2C1F3C752AD1A202D35DACE
:1001D000C1F3160141F4000204B15242C5F12006F8
:1001E00002FA06F12A411044B3EBD05F23D0C4B128
:1001F000012DA0EBC35009DCF0BC4FF0004202EA35
:10020000C352DBB200F5000000F085B9400000F1F8
:10021000807000EBC350A0F1807040EAD1704900BB
:1002200009E0490841EAC071A0EBC35000F50000A5
:10023000400800EBC350F0BC00F064B961420122F9
:1002400002EB4101001BF6E7F0BC704781F0004172
:10025000AAE780F00040A7E780EA010210B502F0AB
:100260000043400022D04A001FD0010E01EB126172
:10027000C0F35600C2F3560240F4000042F40002FC
:10028000A0FB022000047F39140400D0401C50EA77
:10029000124001D44000491EC2B20C0604EBD0103B
:1002A000401C4008802A02D003E0002010BD20F04E
:1002B0000100002900DA0020184310BD30B480EAA4
:1002C000010202F0004530F0004221F0004013D05E
:1002D00090B1C30DD40DC2F31601C0F31600E41A99
:1002E00041F4000140F400027D34914201D3641CCA
:1002F00000E04900002C02DA30BC002070474FF4C7
:1003000000000023914201D3891A034340084FEAB9
:100310004101F7D151B1914202D14FF0004105E0C6
:1003200002D24FF0010101E06FF0010103EBC45074
:10033000284430BC00F0E6B82DE9F04D81EA030412
:1003400004F0004B21F0004514464FF0000A23F062
:10035000004150EA050220D054EA01021DD0C5F345
:100360000A570246C5F31303C1F31300C1F30A563B
:1003700040F4801543F48013A7EB0608101BD64603
:1003800008F2FD3873EB050002D308F1010801E023
:1003900092185B41B8F1000F03DA00200146BDE876
:1003A000F08D00204FF48011064684460EE0171BA6
:1003B00073EB050705D3121B63EB050306434CEAF9
:1003C000010C49084FEA300092185B4150EA0107DE
:1003D000EDD152EA030012D082EA040083EA05015B
:1003E000084305D0101BAB4106D20122002306E0D2
:1003F00000224FF0004302E06FF0010253101AEBAD
:1004000006004CEB085110EB0A0041EB0B01BDE874
:10041000F04D00F0AEB8C10F80EAE0700844CA07A2
:100420009623002100F077B896230022114600F0B1
:1004300072B80EB540F2334102910021CDE90011AE
:100440000A460B4600F0A4F803B000BDC1F30A52FF
:1004500010B5C1F3130140F2FF3341F480119A4209
:1004600001DA002010BD40F233439A42A2F2334237
:1004700003DC5242FFF756FE10BD904010BD00F065
:10048000004230F000400AD0C10D01F56071C0F3A8
:10049000160042EA0151C20840071143704700208C
:1004A0000146704701F0004330B421F0004150EAAA
:1004B000010206D00A0DA2F56072C1F31301002AF1
:1004C00002DC30BC00207047440F44EAC104C10084
:1004D000E01830BC00EBC25000F014B8002801DB7B
:1004E000C0F10040002901DBC1F1004181427047A9
:1004F000002801DBC0F10040002901DBC1F100410F
:10050000884270470029A8BF7047401C490008BFB7
:1005100020F00100704710B4B0FA80FC00FA0CF033
:1005200050EA010404BF10BC704749B1CCF120046B
:1005300021FA04F411FA0CF118BF012121430843F8
:10054000A3EB0C01CB1D4FEA00614FEA102042BF24
:10055000002010BC704700EBC35010440029A4BF1A
:1005600010BC7047401C490008BF20F0010010BCBF
:10057000704710B5141E73F1000408DA401C41F1F5
:10058000000192185B411A4301D120F0010010BD17
:100590002DE9F04D92469B4611B1B1FA81F202E08D
:1005A000B0FA80F22032904600F012F904460F466D
:1005B00040EA0A0041EA0B0153465A46084313D069
:1005C000114653EA010019D0C8F140025046FFF726
:1005D000A9FD05460E4650465946424600F0F8F839
:1005E000084305D0012004E020463946BDE8F08DDF
:1005F0000020054346EAE0762C4337430A9863051A
:10060000E40AA0EB08000022FD0A44EA47540A303D
:1006100002D500200146E9E7010510196941DDE92D
:10062000084500196941BDE8F04DA2E72DE9FE4FEC
:10063000804681EA0300C00F0C46009021F0004183
:1006400023F00045B8EB0200A94105D240462146FF
:1006500090461C460B46024623F00040104347D00C
:10066000270DC7F30A00C3F30A510290401A019004
:1006700040286BDAC3F3130040F4801B00989246C5
:1006800020B10023D2EB030A63EB0B0B0198594610
:10069000C0F14002504600F09BF806460D46504619
:1006A0005946019A00F0A3F810EB080061410024BC
:1006B00087EA115284EAE7731A4340D0009A62B382
:1006C000019A012A4FEA075215DC001B61EB020177
:1006D0004FF0004202EA0752CDE90042001C41F50A
:1006E000801132462B46FFF753FF03B0BDE8F08F71
:1006F00040462146F9E7001B61EB0201001C41F571
:10070000801300185B412018A2F5001747EB030186
:1007100040EAD570B6196D4111E06D084FEA360612
:1007200045EAC0754FEA0752001B61EB0201001C4D
:1007300041F5801149084FEA300000195141324615
:100740002B4603B0BDE8F04FFFF713BF009801221E
:1007500040000023D0EB020263EBE07300982146D7
:100760004FEAE074B8EB000061EB0401E9E783F0C5
:1007700000435BE781F0004158E7000030B5041EFC
:1007800071F1000404DB4FF00044404264EB0101CE
:10079000141E73F1000405DB1C464FF00043524267
:1007A00063EB0403994208BF904230BD064C074DED
:1007B00006E0E06840F0010394E807009847103431
:1007C000AC42F6D3FFF796FC044D0008244D000818
:1007D000202A04DB203A00FA02F100207047914001
:1007E000C2F1200320FA03F3194390407047202AF6
:1007F00006DBCB17203A41FA02F043EAE07306E049
:1008000041FA02F3D040C2F1200291400843194658
:1008100070470000014800F099BA000088040020E9
:1008200070B5044600688168C943C9071CD1816856
:1008300021F00101816001F089FD05460FE000BF54
:1008400001F084FD401B022809D9A06A40F0100085
:10085000A062E06A40F00100E062012070BD206803
:100860008068C043C007EBD0002070BDF8B50026FB
:100870000446009600688168C943C90728D081688A
:1008800041F001018160134813490068B0FBF1F0A9
:1008900000E0401E00900028FBD101F057FD054606
:1008A00011E000BF01F052FD401B02280BD9A06AE5
:1008B00040F01000A062E06A40F00100E06284F8BD
:1008C00024600120F8BD20688068C043C007E9D1DA
:1008D0000020F8BD5800002040420F0070B50122F2
:1008E000094D54022146284601F02BFD642000F0FA
:1008F00011FC00222146284601F023FDBDE870408E
:10090000642000F007BC0000000C0140FEE700007E
:100910000E48016821F080710160016841F080712A
:1009200001600B48016821F001010160016841F09C
:10093000010101600021416000BF00BF00BF4068AD
:1009400008B100207047012070470000FCED00E076
:10095000001000E031B5084D6C6801F0BDFE4FF4A9
:100960007A71B0FBF1F000994843009068680099F3
:10097000001B8842FAD338BD001000E07047012008
:1009800001F0F0BB022001F0EDBB042001F0EABB56
:10099000082001F0E7BB102001F0E4BB10B52020D7
:1009A00001F0E0FB402001F0DDFBBDE810408020BD
:1009B00001F0D8BB06490020C8610648016941F032
:1009C00004010161016941F04001016170470000CB
:1009D0009016002000200240064A0021D1610649FD
:1009E0000A6942F002020A614861086940F0400069
:1009F000086170479016002000200240044B00223E
:100A0000DA61044A136943F00103136101807047FE
:100A1000901600200020024014480022C168CB0636
:100A2000134904D5CA6942F00202CA611022C368A0
:100A30005B0705D5CB6943F00103CB6142F00402AB
:100A4000C369DB0707D0CB6943F00403CB61C169FD
:100A500021F00101C161A2F58071013901D0C260AC
:100A60007047C16921F00101C16170470020024057
:100A70009016002070B586B0044600F0FBFB002104
:100A8000049100910121072C19D2DFE804F08604BB
:100A9000192F455B71004C4DCDE9025104A9684600
:100AA00000F04AFB494E002405EB840156F824204F
:100AB0000023022000F09EFB641CC62CF4D36CE0E3
:100AC000434DCDE9025104A9684600F035FB3F4E85
:100AD000C636002405EB840156F8242000230220AA
:100AE00000F088FB641C682CF4D356E0394DCDE946
:100AF000025104A9684600F01FFB374E5FF0000466
:100B000005EB840156F824200023022000F072FB3C
:100B1000641C042CF4D340E0304DCDE9025104A90B
:100B2000684600F009FB2C4E1C3E002405EB8401B6
:100B300056F824200023022000F05CFB641C022CE9
:100B4000F4D32AE0264DCDE9025104A9684600F00D
:100B5000F3FA214E1A3E002405EB840156F82420B6
:100B60000023022000F046FB641C022CF4D314E0A6
:100B70001C4DCDE9025104A9684600F0DDFA1A4E79
:100B80005FF0000405EB840156F8242000230220C6
:100B900000F030FB641C0C2CF4D300F021FB01228C
:100BA000124D54022146284601F0CBFB642000F090
:100BB000B1FA00222146284601F0C3FB642000F070
:100BC000A9FA06B070BD0000007C0108830C00206B
:100BD000008001080084010820000020008801082E
:100BE000008C010800900108B10D0020000C0140AC
:100BF00070B5054601F0AAFB0646114C09E0681CD9
:100C000007D025B101F0A2FB801BA84201D9032027
:100C100070BDE068C007F2D1E068800601D52020F1
:100C2000E060E068C00605D4E069C00702D1E06872
:100C3000400703D5FFF7F0FE012070BD002070BD16
:100C40000020024070470000F8B50024009490F89E
:100C500024202546012A12D0012280F824204A6847
:100C60001F23072A0DD20668776B521E02EB820201
:100C700093409F430B6893401F43776319E0022022
:100C8000F8BD06680D2A0AD2376BD21F02EB82022A
:100C900093409F430B6893401F43376309E0F76A13
:100CA0000D3A02EB820293409F430B6893401F432F
:100CB000F7620A68072306680A2A0AD3F7680A3A1D
:100CC00002EB420293409F438B6893401F43F760BF
:100CD00008E0376902EB420293409F438B689340E0
:100CE0001F4337610A68102A01D0112A20D1124B04
:100CF00002689A4217D193681B0219D4936843F48F
:100D0000000393600968102912D10C490C4A096844
:100D1000B1FBF2F101EB8101490000E0491E0091B5
:100D20000029FBD104E0816A41F0200181620124A5
:100D300080F824502046F8BD0024014058000020CF
:100D400040420F0070470068C06C704710B5044601
:100D500000684168890626D50168890723D5A16AFC
:100D6000C90603D4A16A41F40071A1628168C1F38C
:100D70004241072910D1E16871B9416821F0200191
:100D80004160A06A20F48070A062A06AC00403D40D
:100D9000A06A40F00100A0622046FFF7D3FF21685F
:100DA0006FF0120008602068416809062ED50168BE
:100DB00049072BD5A16AC90603D4A16A41F40051A1
:100DC000A1628168C1F30231072909D04168490550
:100DD00015D48168C1F34241072910D1E16871B986
:100DE000416821F080014160A06A20F48050A06237
:100DF000A06AC00503D4A06A40F00100A0622046AA
:100E0000FFF720FF21686FF00C0008602068416840
:100E100049060DD50068C0070AD0A06A40F48030AA
:100E2000A062204600F094F821686FF0010008608D
:100E300010BD00002DE9F0414FF0000704003D46D1
:100E40007ED0A06A002628B9E66284F82460204695
:100E500000F080F82046FFF7E3FCA16AC90600D441
:100E600020B1A06A40F01000A06269E0A16A21F4FC
:100E7000885141F00201A1626268E169E3680A43B6
:100E800047EA43010A43A1684FF48077B94209D089
:100E9000012907D05FF00001D4F814C0BCF1010FA4
:100EA00002D00AE03946F7E7F3B1A36A43F0200322
:100EB000A362E36A43F00103E3622368D3F804C04A
:100EC0002CF4694C4CEA010CC3F804C021688B680F
:100ED000DFF870C003EA0C0313438B60A168B942CA
:100EE0000BD0012909D00CE0DFF85CC0A3690CEB42
:100EF00043330B4343F40061DFE7218A0D05A5F579
:100F000080152168CB6A23F470032B43CB622168E0
:100F100089680E4B1940914208D1E662A16A21F01E
:100F2000020141F00101A162BDE8F081A06A20F058
:100F3000020040F01000A062E06A40F00100E062B0
:100F40000120F1E7FDF7E1FF00E0FFFFFE0E1FFFCC
:100F50007047000000B585B0002100910191029119
:100F6000039100681249884220D11248816941F4F6
:100F700000718161816901F400710491816941F01E
:100F8000040181618069694600F004000490072033
:100F9000009003200190084801F0F0F8002211466B
:100FA000122001F03BFA122001F02CFA05B000BD2E
:100FB00000240140001002400008014070B50446C2
:100FC00090F8240001280DD0012084F82400204648
:100FD000FFF74CFC02004FF0000005D084F824001D
:100FE000104670BD022070BDA16A40F201239943F2
:100FF00041F48071A1621F4D23681F49AB4218D193
:101000000E6816F4702F14D0A66A46F48016A662F5
:101010000E68760505D5A66A26F4005646F4805675
:10102000A662A66AF6040AD5E66A26F00606E66215
:1010300006E0A66A26F48016A6625E68E9E7E0622A
:1010400084F824006FF00200186020688368C3F3FE
:101050004243072B05D1A84208D1096811F4702F2B
:1010600004D0816841F480118160B9E7816841F45E
:10107000A001F9E7002801400424014010B590F8D0
:1010800021100024022903D00421816301243DE0C2
:1010900001680A6822F00E020A6001680A6822F0FC
:1010A00001020A601A4A0168914201D1012121E03E
:1010B000174A1432914201D110211BE0144A283200
:1010C000914201D1891515E0114A3C32914201D17A
:1010D00089140FE00E4A5032914202D14FF4803110
:1010E00008E00B4A6432914202D14FF4801101E0D2
:1010F0004FF08071064A083A5160012180F82110B2
:10110000002180F82010416B01B18847204610BDB6
:101110000800024070B5044601F018F90546601C4D
:1011200002D004480078044401F010F9401BA042AA
:10113000FAD370BD4C0000202DE9F0470546264843
:101140000F460126017E01290FD00121814601763B
:101150002868DFF888804CF25034022808D0A24674
:101160002046FFF745FDA8B131E00220BDE8F08739
:101170002046FFF73DFD08BB0120FFF71BFC204682
:10118000FFF736FDD8F81010064621F00401C8F824
:1011900010101CE04FF0FF303860AC6811E02046C2
:1011A000FFF71AFC5046FFF723FDD8F81010060091
:1011B00021F00201C8F8101001D03C6007E004F5EE
:1011C0008064D5E9020100EB8120A042E7D800212C
:1011D00089F818103046C9E7901600200020024018
:1011E0000348016941F0800101610020704700005F
:1011F000002002402DE9F05F07461C488846002485
:10120000017E15461E46012909D00121814601763D
:101210004CF2503A5046FFF7EBFC18B122E00220A6
:10122000BDE8F09F012F02D0022F00D00427D34643
:10123000DFF83CA0220128463146FEF773FF81B259
:1012400008EB4400FFF7DAFB5846FFF7D1FCDAF869
:10125000102022F00102CAF8102018B9641CE4B270
:10126000BC42E7D3002289F81820D9E79016002065
:1012700000200240064900200A69120607D5054AE7
:101280004A60054A4A600969090600D5012070478D
:101290000020024023016745AB89EFCD2DE9F04FD7
:1012A000C3B0C8216846FEF774FFDFF814B4002508
:1012B0000224CBF81050339532959BF800000A2693
:1012C000AA464FF00909012827D05D4617287DD18D
:1012D000FC4FDFF8F4B3DFF8F4A3DFF8F493002653
:1012E000A7F615583868E968081AFFF79DF8B96835
:1012F000FEF7B2FF5946FEF7AFFFFFF7C0F803F065
:101300006BF800225346FFF717F8FFF7CBF8484574
:1013100002DDA97800296ED0F2E3EE4C04F18400DE
:101320003F9016383E9016383D9016383C9016384F
:101330003B9016383A90E24F3F1D3878A84201D1D1
:1013400002F06CF9387879780844A84201D102F0AB
:101350000DFBDB48801D0178A9420BD84178A942DA
:1013600008D3DBE903321A440AF1010101F0FF0A54
:10137000CBF810204778AF421FD1DBF81010B1FB3B
:10138000FAF0FFF751F83390CE480068FFF74CF8B9
:101390003399FEF75EFFCB498968FEF75DFFCA49C6
:1013A000FEF75AFFFFF76BF803F016F80022C74B61
:1013B000FEF7C2FFFFF776F833907F1CAF4273D180
:1013C000C54800270770D4F80E1000E0FEE33398FC
:1013D000FFF784F84BD8A046D4F812103398FFF7E3
:1013E00087F844D898F80900002628B1012807D0CA
:1013F000022833D119E0EAE3B748503007702DE0F6
:10140000AF48D8F80A10203051B1B34A00785032B2
:10141000491E10704046C8F80A10012902D01DE08C
:10142000017815E01770477218E0D8F80A004146B5
:1014300058B1A34A401E20329378A74A503201285F
:101440001370C1F80A0007D008E09D482030817869
:10145000A1485030017001E017704F7298F80800F1
:10146000002821D09C48A0300178093043E0616A0F
:101470003398FFF733F840D8A16A3398FFF738F86C
:101480003BD8E07F012620B1012806D002282AD1CE
:101490000FE091485030077025E08E48006A20B177
:1014A000874920310A780AE009E18548203001782F
:1014B00012E08848006A60B1814920318A78864903
:1014C000401E503101280A703A9AC2F80A0007D02B
:1014D00009E07B48203081787F485030017002E07D
:1014E0007C480F70C7777B48807F0028B9D07A4846
:1014F000A03041781130085CE0E0D4F83A1033981D
:10150000FEF7ECFF45D8D4F83E103398FEF7F0FF15
:101510003FD87048022690F8350020B1012806D047
:1015200002282CD10FE06C485030077027E0694842
:10153000D0F8360018B1624920310A780AE06048D4
:101540002030017813E06348D0F8360060B15C4980
:1015500020318A786049401E503101280A703B9A38
:10156000C2F80A0007D00AE05548203081785A486E
:101570005030017003E057480F7080F835705548BF
:1015800090F834000028B1D05348A0308178193049
:10159000B1E7216D3398FEF7A1FF42D8616D339812
:1015A000FEF7A6FF3DD84B48032690F84B0020B12C
:1015B000012806D002282AD10EE047485030077093
:1015C00025E04448C06C18B13D4920310A7809E053
:1015D0003B482030017812E03E48C06C60B1384989
:1015E00020318A783C49401E503101280A703C9ACB
:1015F000C2F80A0007D00AE0314820308178364826
:101600005030017003E033480F7080F84B70314860
:1016100090F84A000028B6D02F48A030C178213079
:1016200069E7D4F866103398FEF758FF56D8D4F817
:101630006A103398FEF75CFF50D82648042690F8CD
:10164000610020B1012806D002282CD10FE02248E9
:101650005030077027E01F48D0F8620018B11849D1
:1016600020310A780AE016482030017813E0194842
:10167000D0F8620060B1124920318A781649401EC4
:10168000503101280A703D9AC2F80A0007D00AE0DA
:101690000B482030817810485030017003E00D482D
:1016A0000F7080F861700B4890F86000002806D039
:1016B00009480849A0309E390079405C814608E11C
:1016C00000000020B10D0020000020410000244057
:1016D0000000A041830C00201C0B0020E16F339818
:1016E000FEF7FCFE3BD8D4F880103398FEF700FFDD
:1016F00035D8FF48052690F8770020B1012805D09D
:10170000022823D10BE0FB4807701FE0F848806FE8
:1017100010B1F9490A7807E0F74801780FE0F4487A
:10172000806F50B1F4498A78F249401E01280A704E
:101730003E9AC2F80A0005D008E0EF488178ED48EB
:10174000017003E0EA480F7080F87770E84890F87D
:101750007600B0B3E748503041793130CBE6D4F869
:1017600092103398FEF7BAFE3ED8D4F8961033980C
:10177000FEF7BEFE38D8DE48062690F88D0020B170
:10178000012805D0022826D10CE0DA48077022E0B3
:10179000D748D0F88E0010B1D7490A7808E0D6486B
:1017A000017811E0D248D0F88E0058B1D2498A7839
:1017B000D049401E01280A703F9AC2F80A0006D09C
:1017C00009E03FE0CC488178CA48017003E0C8488E
:1017D0000F7080F88D70C64890F88C0090B3C548A3
:1017E00050308179393086E6D4F8A8103398FEF766
:1017F00075FE39D8D4F8AC103398FEF779FE33D89B
:1018000094F8A300072620B1012805D0022822D190
:101810000BE0B84807701EE0D4F8A40010B1B64938
:101820000A7807E0B44801780FE0D4F8A40050B17A
:10183000B1498A78AF49401E01280A70C4F8A40053
:1018400006D008E02BE0AC488178AA48017002E09D
:101850000F7084F8A370A64890F8A200F8B1A548CC
:101860005030C179413046E6D4F8BE103398FEF7C7
:101870003FFE05D9D4F8C2103398FEF72FFE28D8C2
:101880009E483399814224DB94F8B900082620B1A0
:10189000012805D002281CD10FE09648077018E0F7
:1018A000D4F8BA0010B194490A780BE09248017854
:1018B00034E00F7084F8B9700BE0D4F8BA0058B374
:1018C0008D498A788B49401E01280A70C4F8BA00F5
:1018D000EFD089481A3847787F1CAF4239D109EBDD
:1018E000890101EBC9038249C63111F803C0BCF17B
:1018F000000F2ED0B9F1090F2BD01E30194410F86B
:1019000009207C4B515C503B521E197012F0FF01B4
:1019100000F8091005D01CE07748817875480170FF
:10192000D7E700F809C006EB460000EBC60004EB61
:101930004000017A012904D96E485030825D521C62
:1019400082556C48491E5030825D8A4201DD00217B
:101950008155AF427ED1092E29D2DFE806F0052954
:10196000496A8DAED9FAF800DFF88481A8F17E08C3
:10197000D8F80200401CC8F80200D8F85600339985
:10198000FEF712FCC8F85600D8F87A003399FEF733
:101990000BFCC8F87A00607A20B1D8F82610491CF0
:1019A000C8F82610D8F84A10491CC8F84A10F2E0C6
:1019B000DFF83C81A8F17E08D8F80600401CC8F882
:1019C0000600D8F85A003399FEF7EEFBC8F85A0023
:1019D000D8F87A003399FEF7E7FBC8F87A00E07F81
:1019E0000028DFD0D8F82A10491CC8F82A10D9E7F7
:1019F000DFF8FC80A8F17E08D8F80A00401CC8F87F
:101A00000A00D8F85E003399FEF7CEFBC8F85E00F6
:101A1000D8F87A003399FEF7C7FBC8F87A0094F833
:101A200035000028BED0D8F82E10491CC8F82E105A
:101A3000B8E7DFF8BC80A8F17E08D8F80E10491C82
:101A4000C8F80E10D8F862003399FEF7ADFBC8F85D
:101A5000620000E0B1E0D8F87A003399FEF7A4FB09
:101A6000C8F87A0094F84B0000289BD0D8F83210C0
:101A7000491CC8F8321095E7DFF87480A8F17E0899
:101A8000D8F81210491CC8F81210D8F8660033991B
:101A9000FEF78AFBC8F86600D8F87A003399FEF79B
:101AA00083FBC8F87A0094F8610000289FD0D8F82A
:101AB0003610491CC8F8361074E7DFF83480A8F1F6
:101AC0007E08D8F81610491CC8F81610D8F86A0015
:101AD0003399FEF769FBC8F86A00D8F87A003399A1
:101AE000FEF762FBC8F87A0094F87700002808E057
:101AF000830C00206C0B00202000002000002041FF
:101B0000F6E295D0D8F83A10491CC8F83A1049E7DF
:101B1000DFF87C84D8F81A00401CC8F81A00D8F8FE
:101B20006E003399FEF740FBC8F86E00D8F87A00D3
:101B30003399FEF739FBC8F87A0094F88D00002835
:101B400099D0D8F83E10491CC8F83E102AE7A8E200
:101B5000FFE7DFF83C84D8F81E00401CC8F81E00E0
:101B6000D8F872003399FEF71FFBC8F87200D8F856
:101B70007A003399FEF718FBC8F87A0094F8A300AE
:101B800020B1D8F84210491CC8F84210D8F84A00D1
:101B9000401CC8F84A00FE48FD49E9380078087042
:101BA000A1F1990000784870DBF81820521CCBF89E
:101BB0001820DBF81C00C1F85200AF420ED1F449E6
:101BC0004F22E939481CFEF7BDFA01E066E288E2DF
:101BD000EF494F229939481CFEF7B4FAAF427DD144
:101BE000329A022069460DF8020032988922401C80
:101BF000C0B20DF80020401C339AC0B2120E0DF88E
:101C00000020401C339AC0B2120C0A54401C339A74
:101C1000C0B2120A0A54401CC0B2339A0A54DC4AB9
:101C2000401CC0B2D2F852301F0E0F54401CC0B23C
:101C30001F0C0F54401CC0B21F0A0F54401CC0B2EE
:101C40000B54401C52F8023FC0B21F0E0F54401CF0
:101C5000C0B21F0C0F54401CC0B21F0A0F54401CCE
:101C6000C0B20B54401C536DC0B21F0E0F54401C29
:101C7000C0B21F0C0F54401CC0B21F0A0F54401CAE
:101C8000C0B20B54401C5368C0B21F0E0F54401C0E
:101C9000C0B21F0C0F54401CC0B21F0A0F54401C8E
:101CA000C0B20B54401C936DC0B21F0E0F54401CA9
:101CB000C0B21F0C0F54401CC0B21F0A0F54401C6E
:101CC000C0B20B54401C9368C0B21F0E0F54401C8E
:101CD000C0B21F0C0F54401CC0B200E0D7E11F0A75
:101CE0000F54401CC0B20B54401CC3B2D06D070E41
:101CF000CF545B1CDBB2070CCF545B1CDBB2070A72
:101D0000CF545B1CDBB2C8545B1CD068DBB2070E3F
:101D1000CF545B1CDBB2070CCF545B1CDBB2070A51
:101D2000CF545B1CDBB2C8545B1CD8B2136E1F0EC1
:101D30000F54401CC0B21F0C0F54401CC0B21F0AED
:101D40000F54401CC0B20B54401CC3B21069070EA4
:101D5000CF545B1CDBB2070CCF545B1CDBB2070A11
:101D6000CF545B1CDBB2C8545B1C506EDBB2070E59
:101D7000CF545B1CDBB2070CCF545B1CDBB2070AF1
:101D8000CF545B1CDBB2C8545B1CD8B253691F0E26
:101D90000F54401CC0B21F0C0F54401CC0B21F0A8D
:101DA0000F54401CC0B20B54401C936EC0B21F0EA7
:101DB0000F54401CC0B21F0C0F54401CC0B21F0A6D
:101DC0000F54401CC0B20B54401C9369C0B21F0E8C
:101DD0000F54401CC0B21F0C0F54401CC0B21F0A4D
:101DE0000F54401CC0B20B54401CD36EC0B21F0E27
:101DF0000F54401CC0B21F0C0F54401CC0B21F0A2D
:101E00000F54401CC0B20B54401CD369C0B21F0E0B
:101E10000F54401CC0B21F0C0F54401CC0B21F0A0C
:101E20000F54401CC0B20B54401C136FC0B21F0EA5
:101E30000F54401CC0B21F0C0F54401CC0B21F0AEC
:101E40000F54401CC0B20B54401C136AC0B21F0E8A
:101E50000F54401CC0B21F0C0F54401CC0B21F0ACC
:101E60000F54401CC0B20B54401C536FC0B21F0E25
:101E70000F54401CC0B21F0C0F54401CC0B21F0AAC
:101E80000F54401CC0B20B54401CC3B2906C070EE0
:101E9000CF545B1CDBB2070CCF545B1CDBB2070AD0
:101EA000CF545B1CDBB2C8545B1CD8B2936F1F0EBF
:101EB0000F54401CC0B21F0C0F54401CC0B21F0A6C
:101EC0000F54401CC0B20B54401CC0B212F8023C6C
:101ED0000B54401CC0B212F8013C0B542C4B401C5C
:101EE000493BC0B213F809300B542A4B401CC0B216
:101EF00013F809300B54401CC3B2506A070ECF547C
:101F00005B1CDBB2070CCF545B1CDBB2070ACF545F
:101F10005B1CDBB2C8545B1C906ADBB2070ECF546B
:101F20005B1CDBB2070CCF545B1CDBB2070ACF543F
:101F30005B1CDBB2C8545B1CD06ADBB2070ECF540B
:101F40005B1CDBB2070CCF545B1CDBB2070ACF541F
:101F50005B1CDBB2C8545B1CD8B2136B1F0E0F5452
:101F6000401CC0B21F0C0F54401CC0B21F0A0F54BB
:101F7000401CC0B20B54401C536BC0B21F0E0F5418
:101F8000401CC0B21F0C0F54401CC0B21F0A03E01B
:101F9000050C0020240000200F54401CC0B20B543C
:101FA000401C936BC0B21F0E0F54401CC0B21F0CDC
:101FB0000F54401CC0B21F0A0F54401CC0B20B5437
:101FC000401CD36BC0B21F0E0F54401CC0B21F0C7C
:101FD0000F54401CC0B21F0A0F54401CC0B20B5417
:101FE000401C136CC0B21F0E0F54401CC0B21F0C1B
:101FF0000F54401CC0B21F0A0F54401CC0B20B54F7
:10200000401CC3B2506C020ECA545B1CDAB2030C03
:102010008B54521CD2B2030A8B54521CD2B2885435
:10202000521CD0B2627A0A54401CE27FC0B2142320
:102030000A54401CC0B294F835200A54401CC0B267
:1020400094F84B200A54401CC0B294F861200A5402
:10205000401CC0B294F877200A54401CC0B294F8D7
:102060008D200A54401CC0B294F8A3200A54401C8E
:10207000C0B294F8B9200A54401CC0B203220A54DA
:10208000401CC0B202463290324801F07DF8012077
:10209000FEF760FC6D1CFF2D7FF64DA943B0BDE837
:1020A000F08FDFF8B480D8F82200401CC8F8220076
:1020B000D8F876003399FEF777F8C8F87600D8F8A4
:1020C0007A003399FEF770F8C8F87A0094F8B900EE
:1020D00000283FF48CACD8F84610491CC8F84610CC
:1020E00060E41E49884203DA322E01DC0121A97026
:1020F000020E08F80420641C020C08F80420641C7A
:10210000020A08F80420641C08F804000120641C7A
:10211000FEF720FC761CFA2EFFF6E4A8A878697872
:102120000842BBD0102188F80010022288F8012054
:1021300008F80410641C032108F8041064234FF409
:102140007B720749034801F01FF800206870A870EF
:10215000A4E7000038050020050C00200000C8425C
:102160009C000020044910B50A68024202D00860B1
:10217000FFF794F810BD0000140401402DE9F84F5A
:10218000DFF890A100220AF1040B144601274FF05A
:102190000F090BF1040E00BF0B6807FA04F52B4082
:1021A000AB4274D1DFF870C14E68A6EB0C086645EF
:1021B0002BD00DDC032E34D005DC36B3012E19D024
:1021C000022E2FD11BE0112E16D0122E2AD119E08B
:1021D000B8F5881F19D006DCB8F5803F15D0B8F5E2
:1021E000801F1FD111E0B8F5001F0ED0B8F5041FF5
:1021F00018D10AE0CA6815E0CA68121D12E0CA6860
:1022000008320FE0CA680C320CE08A682AB1012A51
:102210004FF0080203D0456104E0042202E00561AA
:1022200000E00022FF2B01D8064601E000F1040681
:102230004FEA840501D9A5F12005D6F800C009FAB6
:1022400005F82CEA080C02FA05F54CEA050CC6F86C
:1022500000C04D68ED0057D5304DAE6946F001061F
:10226000AE61AD6924F0030605F0010500952C4D23
:1022700006EB050CDCF80850A6074FEA167809FAB9
:1022800008F6B543274EB04202D1002610E03BE0ED
:10229000254EB04201D101260AE0244EB04201D1C0
:1022A000022605E0224EB04201D1032600E00426BA
:1022B00006FA08F62E43CCF808604D68DAF800609C
:1022C000ED03554601D51E4300E09E432E604D6848
:1022D000DBF80060AD035D4601D51E4300E09E4380
:1022E0002E604D68DEF80060ED02754601D51E4394
:1022F00000E09E432E604D68AD020E4D2E6801D564
:102300001E4300E09E432E60641C102CFFF444AF7B
:10231000BDE8F88F000401400000111000100240D9
:102320000000014000080140000C01400010014085
:10233000001401400C0401408068084000D00120D6
:1023400070470AB1016170470904FBE701488068E2
:10235000704700004C000020024881680278114458
:10236000816070474C000020074810B5016841F0BB
:1023700010010160032000F071F8002000F006F861
:1023800000F024F8002010BD0020024070B50D4D73
:1023900004464FF47A712878B1FBF0F00A490968D5
:1023A000B1FBF0F000F07AFB48B9102C07D2002204
:1023B0002146501E00F032F800206C6070BD0120F4
:1023C00070BD00004C000020580000200B4808B5EC
:1023D000816941F001018161816901F00101009190
:1023E000C16941F08051C161C06900F08050009026
:1023F0000348416821F0E061416008BD00100240DF
:102400000000014000F01F020121914040098000BE
:1024100000F1E020C0F8001170470000F0B40E4B4E
:102420001B680C46C3F30223C3F10705042D00D932
:102430000425191D072901D2002300E0DB1E012617
:1024400006FA05F1491E214099409E40761E16402D
:102450003143F0BC01F0D0B80CED00E0064900F0CB
:10246000070208684FF6FF03184040EA0220034ABB
:1024700010430860704700000CED00E00000FA0512
:102480002DE9F84305460078354CC00754D0E06983
:102490000026C00008D4E06940F08050E061E069A7
:1024A000012600F0805000902E480168C90512D422
:1024B0000168804641F480710160FFF747FF0746DD
:1024C00005E000BFFFF742FFC01B642823D8D8F8FF
:1024D0000000C005F6D5206A10F4407021D0A9880C
:1024E00001F4407181421CD0206A1F49012220F46E
:1024F00040700A6000220A602062C00711D0FFF716
:1025000025FF074641F2883808E000BFFFF71EFFAD
:10251000C11B414502D90320BDE8F883206A80072A
:10252000F4D5206A696820F44070084320621EB127
:10253000E06920F08050E0612878800705D5606868
:10254000A96820F44040084360602878C00605D59B
:102550006068E96820F48000084360600020DBE7E1
:102560000010024000700040400442422DE9F04754
:10257000DFF8548105460E46D8F8000000F0070049
:10258000B0420CD2D8F8001021F007013143C8F84E
:102590000010D8F8000000F00700B0426FD12868A2
:1025A0004A4C810712D5400703D5606840F4E060CB
:1025B00060602878000703D5606840F46050606070
:1025C0006068A96820F0F000084360602878C007C0
:1025D00044D06868012816D02168022816D08907DF
:1025E00000294CDA616821F0030101436160FFF7C3
:1025F000ADFE6968074641F2883001290ED00229F4
:10260000814618D026E021688903E9E78901E7E7D8
:10261000FFF79CFEC11B494501D918E0814660685F
:10262000C0F381000128F3D118E000BFFFF78EFE50
:10263000C11B49450BD86068C0F381000228F5D161
:102640000CE000BFFFF782FEC11B494502D9032001
:10265000BDE8F087606810F00C0FF3D1D8F80010D7
:10266000404601F00701B1420BD9016821F0070192
:1026700031430160006800F00700B04201D0012042
:10268000E6E72878400705D56068E96820F4E0604F
:10269000084360602878000706D56068296920F43F
:1026A000605040EAC100606000F03CF86168084A90
:1026B000C1F30311515CC840064908600020FFF7D0
:1026C00065FE0020C4E70000002002400010024028
:1026D000EC4C0008580000200148006870470000DA
:1026E000580000200448054900684968044AC1F3BD
:1026F0000221515CC8407047580000200010024081
:10270000FC4C00080448054900684968044AC1F3C4
:10271000C221515CC84070475800002000100240A0
:10272000FC4C000813A185B00FC98DE80F0015A05F
:10273000154A00680490516801F00C00042804D088
:10274000082804D0114805B070471148FBE7C1F3D1
:102750008343C9031DF8030009D5516804AAC1F3D6
:102760004041515C0A4A5043B0FBF1F0EBE70949A4
:102770004843E8E702030405060708090A0B0C0DA5
:102780000E0F1010010200000010024000127A002B
:102790000024F40000093D002DE9F84F04460078BC
:1027A000B94DC00748D06868C0F38100012807D040
:1027B0006868C0F38100022809D16868C00306D5A3
:1027C0002868800338D5606800286FD034E06068DE
:1027D000B0F5803F0BD010B1B0F5A02F11D0286814
:1027E00020F480302860286820F4802002E02868E7
:1027F00040F480302860606888B1FFF7A7FD064686
:1028000009E0286840F480202860F0E7FFF79EFD8B
:10281000801B642875D828688003F7D50CE0FFF783
:1028200095FD064605E000BFFFF790FD801B64287C
:10283000F0D828688003F7D42078944E80074FF0B2
:1028400001094FF000083BD5686810F00C0F07D065
:102850006868C0F38100022809D16868C00306D403
:102860002868800714D5206901281FD110E020694D
:10287000B0B1C6F80090FFF769FD074605E000BF5C
:10288000FFF764FDC01B0228C4D828688007F7D56D
:102890002868616920F0F80040EAC10028600FE074
:1028A000C6F80080FFF752FD074606E0E9E000BFEA
:1028B000FFF74CFDC01B022823D828688007F7D4F7
:1028C000207800072CD57248A169D9B1C0F80090D2
:1028D000FFF73CFD074604E0FFF738FDC01B022868
:1028E0000FD8686A8007F7D56A484FF4FA51006834
:1028F000B0FBF1F0009000BF0098411E0091FAD2A9
:102900000EE080E0C0F80080FFF720FD074604E0FD
:10291000FFF71CFDC01B022875D8686A8007F7D432
:102920002078400760D5E8690027C00008D4E8692E
:1029300040F08050E861E869012700F08050009085
:1029400055480168C90513D40168834641F4807174
:102950000160FFF7FBFC824606E000BFFFF7F6FCD4
:10296000A0EB0A0064284ED8DBF80000C005F5D5BE
:10297000E06801280AD008B1052813D0286A20F0A1
:1029800001002862286A20F0040002E0286A40F072
:1029900001002862E06841F2883B98B1FFF7D6FC5D
:1029A00082460BE0286A40F004002862EEE700BF90
:1029B000FFF7CCFCA0EB0A0159455AD8286A8007DA
:1029C000F6D50CE0FFF7C2FC824605E0FFF7BEFC3F
:1029D000A0EB0A0159454CD8286A8007F6D41FB1EC
:1029E000E86920F08050E861E06988B36968C1F364
:1029F0008101022945D00228C6F8608004D0FFF783
:102A0000A5FC044638E034E0FFF7A0FC074604E0EC
:102A1000FFF79CFCC01B02282BD828688001F7D444
:102A2000206AB0F5803F05D16868A16820F40030C5
:102A300008436860D4E908010843696821F4741107
:102A400008436860C6F86090FFF780FC044606E023
:102A500015E000BFFFF77AFC001B022809D82868A0
:102A60008001F7D50BE000BFFFF770FC001B0228C8
:102A700002D90320BDE8F88F28688001F4D4002033
:102A8000F8E70120F6E70000001002400000424293
:102A900080044242580000200070004010B5401EE3
:102AA000B0F1807F01D3012010BD4FF0E0246061C0
:102AB0000F21601700F0A0FD0020A0610720206119
:102AC000002010BD7047704730B590F83C20012AB7
:102AD00020D0012280F83C20022380F83D3003689A
:102AE0005C6824F070045C6003685C680D682C43CB
:102AF0005C6003689C6824F080049C6003689C68A8
:102B000049680C439C6080F83D20002180F83C100F
:102B1000084630BD022030BD10B5040003D094F843
:102B20003D0010B107E0012010BD002084F83C00FA
:102B3000204600F00DF8022084F83D00211D206899
:102B400001F030FA012084F83D00002010BD0000A3
:102B500008B5154A0168154891420ED1816941F4C2
:102B6000006181618069002200F4006000901146DC
:102B70001B20FFF753FC1B2010E00D4A914211D19E
:102B8000C16941F00201C161C069002200F0020088
:102B9000009011461D20FFF741FC1D20BDE80840B4
:102BA000FFF730BC08BD0000002C014000100240BF
:102BB0000004004070B5044690F83C00012817D08E
:102BC000012584F83C50022084F83D00206882688A
:102BD00022F0770222F47F4282600868502837D0C2
:102BE0000DDC202859D005DC88B3102841D151E0F4
:102BF000022070BD302853D040283AD13FE06028F1
:102C00002ED070280BD0B0F5805F03D0B0F5005FF8
:102C10002FD110E02068816821F0070115E0CB6812
:102C2000D1E90121206801F0FEF92168886840F0AF
:102C3000770088601DE0CB68D1E90121206801F0B0
:102C4000F2F92068816841F48041816011E01EE062
:102C5000CA684968206801F0F8F95021206806E048
:102C6000CA684968206801F001FA6021206801F013
:102C7000E4F984F83D50002084F83C0070BDCA6837
:102C80004968206801F0E1F940212068EFE7002160
:102C90002068ECE710212068E9E720212068E6E7BA
:102CA00030212068E3E7704770B504460068016989
:102CB0004FF00005C943890715D4C168C943890786
:102CC00011D4E91E01610120207720688069800706
:102CD000204602D0FFF7E7FF04E000F098F8204616
:102CE00000F0C6F8257720680169C943490717D461
:102CF000C168C943490713D46FF004010161022080
:102D000020772068806910F4407F204602D0FFF7CA
:102D1000CAFF04E000F07BF8204600F0A9F8257710
:102D200020680169C943090716D4C168C943090766
:102D300012D46FF008010161042020772068C06977
:102D40008007204602D0FFF7AEFF04E000F05FF8F6
:102D5000204600F08DF8257720680169C943C9062F
:102D600017D4C168C943C90613D46FF010010161BB
:102D7000082020772068C06910F4407F204602D0E8
:102D8000FFF791FF04E000F042F8204600F070F8F1
:102D9000257720680169C943C90708D1C168C943BB
:102DA000C90704D1891E0161204600F062F820683D
:102DB0000169C943090609D4C168C943090605D494
:102DC0006FF0800101612046FFF77CFE20680169F9
:102DD000C943490609D4C168C943490605D46FF0FF
:102DE00040010161204600F045F820680169C943AF
:102DF00089060BD4C168C943890607D46FF0200146
:102E000001612046BDE87040FFF75DBE70BD7047B0
:102E100010B50268044631B1042908D008291DD034
:102E20000C2908D11EE0D06840F0020002E0D06812
:102E300040F00400D0600122206801F0E9F80B495D
:102E40002068884203D1416C41F40041416420680C
:102E5000016841F001010160002010BDD06840F020
:102E60000800E7E7D06840F01000E3E7002C0140DD
:102E7000704770477047704770B502680446106825
:102E8000D168536910F00F0F50D003F0010501F421
:102E9000907635435DD0C20705D0CA0503D5E26BF5
:102EA00042F00102E263420705D5DA0703D0E26B84
:102EB00042F00202E263820705D5DA0703D0E26B33
:102EC00042F00402E263020705D5DA0703D0E26BA1
:102ED00042F00802E263E26B002A33D0800604D598
:102EE000880602D5204601F0E9F820684069E16BC8
:102EF000C0F38010090700D428B3204601F0D0F8B1
:102F00002068416949061AD5416921F040014161B3
:102F1000606BA0B11B494163606BFEF7AFF80028FE
:102F200010D0606B416BBDE870400847830610D538
:102F30008B060ED52046BDE8704001F0BFB8204694
:102F4000FFF799FF70BD2046FFF795FF0020E06373
:102F500070BD030606D50B0604D52046BDE87040BB
:102F600001F0B0B94006F3D54806F1D5D168204646
:102F700021F04001D160202184F8391000F061F97E
:102F800070BD00009140000870B5040004D094F8B2
:102F90003900002510B106E0012070BD84F83850DA
:102FA000204600F023F8242084F839002068C16806
:102FB00021F40051C160204601F0CCF8206801697D
:102FC00021F4904101612068416921F02A014161A9
:102FD0002068C16841F40051C160E563202084F895
:102FE000390084F83A00002070BD000070B586B04A
:102FF0000024009401940294039403682E482D4EFB
:10300000022103220515B34226D1836943F480438C
:103010008361836903F480430493836943F0040369
:1030200083618069254E00F0040004900802CDE918
:103030000001039269463046FFF7A0F8CDE900543D
:10304000694630460294FFF799F800221146252080
:10305000FFF7E4F9252028E0194EB34227D1C369D0
:1030600043F48023C361C36903F480230493836919
:1030700043F0080383618069CDE9005100F0080046
:10308000CDE903200F4D69462846FFF777F8E8148D
:10309000CDE90004694628460294FFF76FF8002244
:1030A00011462720FFF7BAF92720FFF7ABF906B042
:1030B00070BD0000003801400010024000080140CF
:1030C00000480040000C014090F83A30202B22D1FB
:1030D000F9B1F2B190F83830012B1CD081628285B1
:1030E000C2850021C163222280F83A2080F838107E
:1030F0000168CA6842F48072CA6001684A6942F095
:1031000001024A610068C16841F02001C1600020ED
:103110007047012070470220704700000068154981
:10312000884226D1144815490278097882B1012ACB
:1031300012D0022A13D0032A1BD1032919D100214E
:10314000017041614FF480720D490E48FCF7FABFDF
:1031500002290ED101210BE00161022108E0084B98
:1031600042699954521C42610169914201D803217C
:103170000170704700380140340000202C0000200E
:10318000BD0D0020B80500202DE9F843044690F855
:1031900039001F4616460D46202850D1A5B19EB1D4
:1031A00094F8380001284AD0012084F838004FF004
:1031B0000008C4F83C80212084F83900FFF7C6F8E5
:1031C000A6848146E68426E00120BDE8F883E08CF1
:1031D000401EE084A0684B46B0F5805F4FF00002CF
:1031E0004FF080012046009703D001F09CF8E8B929
:1031F0000DE001F098F8C8B928882168C0F30800EC
:103200004860206908B16D1C05E0AD1C03E0216831
:1032100015F8010B4860E08C0028D8D14B460022FD
:1032200040212046009701F07EF808B10320CCE74A
:10323000202084F8390084F838800020C5E7022077
:10324000C3E77047FEE700002DE9F0410025184F65
:1032500006462C46F868FDF7E7F82946FCF7A4FF78
:1032600005460120FDF776FB641C642CF2DD204648
:10327000FDF7D1F801462846FDF720F80446304610
:10328000FDF7D2F82146FCF7E4FF01460948FDF7B7
:1032900015F80949FCF7E0FFFDF7F1F801F09CF89B
:1032A0000022064BFDF748F8BDE8F041FDF7FAB8FB
:1032B000000000200000484200401C460088C34037
:1032C0002DE9F0410024184F884606462546F86847
:1032D000FDF7AAF82946FCF767FF05460120FDF730
:1032E00039FB641C642CF2DD2046FDF794F801469E
:1032F0002846FCF7E3FF04463046FDF795F82146E3
:10330000FCF7A7FF4146FCF7A7FF0849FCF7A4FF1D
:10331000FDF7B5F801F060F80022054BFDF70CF859
:10332000BDE8F041FDF7BEB80000002000002041DC
:103330000000244070B500240D4E2546F068054479
:103340000120FDF707FB641C642CF7DDB5FBF4F0EE
:1033500000EB80004000FDF76CF801F03DF8002222
:10336000044BFCF7E9FFBDE87040FDF76FB80000C3
:103370000000002000002440FEB500241348009403
:103380000194114902940160891501254461C0E945
:10339000021503260661C9024460C161FDF74AFDBA
:1033A00005200094CDE9015069460848FDF74CFC22
:1033B0000220019069460548FDF746FC694603482E
:1033C0000196FDF741FCFEBD002401408804002069
:1033D0002DE9F04786B000255548009501950295E6
:1033E0000395816941F010018161816901F010014B
:1033F0000491816941F020018161816901F020011E
:103400000491816941F004018161816901F0040145
:103410000491816941F0080181618069454F00F0A4
:1034200008004FF6FF740490002221463846FEF74C
:1034300088FFDFF8049100224FF204214846FEF78E
:1034400080FFDFF8F8A04FF4C858002241465046EC
:10345000FEF777FF00224FF4F0714846FEF771FF48
:10346000009401240326CDE90246694638460194BA
:10347000FEF784FE324F7820CDE9000769460295B9
:103480005046FEF77BFE8020CDE900056946029498
:103490005046FEF773FE0096CDE901756946484631
:1034A000FEF76CFE4FF2E430CDE90004CDE90246B0
:1034B00069464846FEF762FECDE90084CDE9024642
:1034C00069465046FEF75AFE0420CDE900076946DA
:1034D00002951C48FEF752FE002204210620FEF74A
:1034E0009DFF0620FEF78EFF002204210720FEF735
:1034F00095FF0720FEF786FF002204210820FEF733
:103500008DFF0820FEF77EFF002204210920FEF730
:1035100085FF0920FEF776FF002204210A20FEF72E
:103520007DFF0A20FEF76EFF06B0BDE8F0870000C1
:103530000010024000100140000C01400008014052
:10354000000021100014014000B587B0002113488D
:10355000009101910291039104910F4A059102603B
:1035600048F69F42C0E901216422C0E9032141617C
:103570008161FFF7D1FA4FF4805000906946074807
:10358000FFF718FB202004908020059004A9034831
:10359000FFF79AFA07B000BD002C0140B8040020E4
:1035A00000B587B00021124800910191029103916A
:1035B00004910E4A059102604722C0E9012163226D
:1035C000C0E903218161FFF7A7FA4FF48050009012
:1035D00069460748FFF7EEFA202004908020059006
:1035E00004A90348FFF770FA07B000BD00040040CB
:1035F000F8040020FEE770470907090E002806DAE4
:1036000000F00F0000F1E02080F8141D704700F179
:10361000E02080F800147047704700002DE9F04763
:10362000DFF874A00025AAF22D26A94605EB850136
:1036300001EBC501002401EB0A0700BF07EB0408FA
:1036400098F80100315C814208D138B198F8070040
:1036500000F01AFA98F8011006F80190641C062C84
:10366000ECDB6D1C082DE1DB0C4C0D4D2078295C4A
:10367000814205D1607800F007FA217805F80190C1
:10368000A078295C814205D1E07800F0FDF9A178AD
:1036900005F80190BDE8F087490D002020000020CA
:1036A0006C0B00202DE9F05FAC4EAD4FAD4DAE4C34
:1036B0004FF480794FF480584FF4005A4FF4804B08
:1036C0004FF40043192877D2DFE800F0760D1A286E
:1036D00035424F5C69778487979BA8B5C2D0DDF1EE
:1036E000FEEEEDECEB00012211462846FEF729FE26
:1036F00060782178401AFDF72DF9002201210BE0B6
:10370000012202212846FEF71CFE60782178401A2B
:10371000FDF720F9002202212846FEE001220421C3
:103720002846FEF70EFE60782178401AFDF712F960
:1037300000220421F0E7012208212846FEF701FEBD
:1037400060782178401AFDF705F900220821E3E7A7
:10375000012210212846FEF7F4FD60782178401AF6
:10376000FDF7F8F800221021D6E701222021284693
:10377000FEF7E7FD60782178401AFDF7EBF80022AC
:103780002021C9E7012240212846FEF7DAFD6078B2
:103790002178401AFDF7DEF800224021BCE7012223
:1037A00080212846FEF7CDFD60782178401AFDF78C
:1037B000D1F800228021AFE7CDE00122494628461A
:1037C000FEF7BFFD60782178401AFDF7C3F80022AC
:1037D0004946A1E70122560211E001229602314634
:1037E0002846FEF7AEFD60782178401AFDF7B2F862
:1037F000002231462846FEF7A4FD0122D6023146BA
:1038000029E0012241462846FEF79BFD6078217899
:10381000401AFDF79FF8002241467DE701225146FC
:103820002846FEF78EFD60782178401AFDF792F861
:103830000022514670E7012259462846FEF781FDD5
:1038400060782178401AFDF785F80022594663E731
:1038500001221E4619462846FEF773FD607821783E
:10386000401AFDF777F80022314655E7012241461C
:103870003046FEF766FD60782178401AFDF76AF859
:10388000002241460BE0012251463046FEF759FD29
:1038900060782178401AFDF75DF8002251463046E5
:1038A0003BE04BE03DE02AE01CE00DE0FFE70122B9
:1038B00059463046FEF745FD60782178401AFDF7FD
:1038C00049F800225946EAE701221D4619463046CA
:1038D000FEF737FD60782178401AFDF73BF80022AB
:1038E0002946DCE7012249463846FEF72AFD607882
:1038F0002178401AFDF72EF8002249460CE00122FB
:10390000D50229463846FEF71CFD60782178401A1A
:10391000FDF720F8002229463846BDE8F05FFEF7A3
:1039200010BD012241463846FEF70BFD6078217834
:10393000401AFDF70FF800224146EDE7012204216D
:103940003046FEF7FEFC60782178401AFDF702F859
:1039500000220421A3E7BDE8F09F0000000C014015
:103960000008014000100140040000202DE9F0474C
:10397000424C002201212046FEF7E3FC00220221F6
:103980002046FEF7DEFC002204212046FEF7D9FC8B
:10399000002208212046FEF7D4FC002210212046F8
:1039A000FEF7CFFC002220212046FEF7CAFC0022B1
:1039B00040212046FEF7C5FC002280212046FEF76C
:1039C000C0FCA515002229462046FEF7BAFC0022BD
:1039D00061152046FEF7B5FC002221152046FEF7B2
:1039E000B0FCE614002231462046FEF7AAFC4FF454
:1039F000805A002251462046FEF7A3FC671400229D
:103A000039462046FEF79DFC4FF48048002241468F
:103A10002046FEF796FC4FF4004900224946204616
:103A2000FEF78FFC164C002251462046FEF789FC1B
:103A3000002239462046FEF784FC002241462046FB
:103A4000FEF77FFC002249462046FEF77AFC294615
:103A50000C4D00222846FEF774FC00223146284611
:103A6000FEF76FFC002251462846FEF76AFC20460E
:103A7000BDE8F04700220421FEF763BC00100140BE
:103A8000000C0140000801402DE9F00302463448D3
:103A9000344B8515C61481144714334C4FF4804CB5
:103AA0004FF40049192A58D2DFE802F0570D1013DD
:103AB00016191C1F2225282B2E313336393C3E4245
:103AC00045484B525400012211463DE0012202219B
:103AD0003AE00122042137E00122082134E00122EA
:103AE000102131E0012220212EE0012240212BE093
:103AF0000122802128E00122294625E001225102ED
:103B000022E0012291021FE0012231461CE0012245
:103B10001AE00122394617E00122614614E0012231
:103B2000494611E0012201E00122394618460BE026
:103B300001226146FAE701224946F7E701222946B8
:103B400001E0012231462046BDE8F003FEF7F9BB53
:103B50000122F8E701220421E8E7BDE8F0037047FD
:103B600000100140000C0140000801402DE9F05F09
:103B7000DFF8F4A2012211465046FEF7E2FBBB4CEF
:103B800060782178401AFCF7E5FE002201215046BA
:103B9000FEF7D7FB012202215046FEF7D2FB6078E8
:103BA0002178401AFCF7D6FE002202215046FEF78B
:103BB000C8FB012204215046FEF7C3FB6078217840
:103BC000401AFCF7C7FE002204215046FEF7B9FB5D
:103BD000012208215046FEF7B4FB60782178401A94
:103BE000FCF7B8FE002208215046FEF7AAFB01228E
:103BF00010215046FEF7A5FB60782178401AFCF7AB
:103C0000A9FE002210215046FEF79BFB0122202135
:103C10005046FEF796FB60782178401AFCF79AFE32
:103C2000002220215046FEF78CFB01224021504605
:103C3000FEF787FB60782178401AFCF78BFE0022A4
:103C400040215046FEF77DFB012280215046FEF7C1
:103C500078FB60782178401AFCF77CFE00228021F6
:103C60005046FEF76EFB4FF4807B012259465046CA
:103C7000FEF767FB60782178401AFCF76BFE0022A4
:103C800059465046FEF75DFB012255022946504633
:103C9000FEF757FB60782178401AFCF75BFE0022A4
:103CA00029465046FEF74DFB012295022946504613
:103CB000FEF747FB60782178401AFCF74BFE0022A4
:103CC00029465046FEF73DFB0122D50229465046C3
:103CD000FEF737FB60782178401AFCF73BFE0022A4
:103CE00029465046FEF72DFB4FF4805901224946E4
:103CF0005046FEF726FB60782178401AFCF72AFE32
:103D0000002249465046FEF71CFB0122560331466D
:103D10005046FEF716FB60782178401AFCF71AFE31
:103D2000002231465046FEF70CFB0122970339462C
:103D30005046FEF706FB60782178401AFCF70AFE31
:103D4000002239465046FEF7FCFA4FF400480122A3
:103D500041465046FEF7F5FA60782178401AFCF7A4
:103D6000F9FD002241465046FEF7EBFADFF800A1CC
:103D7000012249465046FEF7E4FA60782178401A5D
:103D8000FCF7E8FD002249465046FEF7DAFA012228
:103D900031465046FEF7D5FA60782178401AFCF794
:103DA000D9FD002231465046FEF7CBFA01223946B2
:103DB0005046FEF7C6FA60782178401AFCF7CAFD33
:103DC000002239465046FEF7BCFA012241465046D1
:103DD000FEF7B7FA60782178401AFCF7BBFD0022A5
:103DE00041465046FEF7ADFA224E01225946304672
:103DF000FEF7A7FA60782178401AFCF7ABFD0022A5
:103E000059463046FEF79DFA012229463046FEF714
:103E100098FA60782178401AFCF79CFD0022294628
:103E20003046FEF78EFA012249463046FEF789FAFF
:103E300060782178401AFCF78DFD00224946304613
:103E4000FEF77FFA012204215046FEF77AFA6078E5
:103E50002178401AFCF77EFD5046BDE8F05F002255
:103E60000421FEF76EBA000000100140040000209B
:103E7000000C0140000801407047FEF76DBA30B5F4
:103E800093B028216846FCF784F914210AA8FCF7AE
:103E900080F9002501200F95109511950104420429
:103EA00012958DE8070004904FF4E010CDE908105A
:103EB000022407946846FEF76FFC0AA90F2081E8E8
:103EC000310060020D904FF4E0600E9002210AA8CC
:103ED000FEF74CFB4FF4404011900F940FA8FEF7F3
:103EE000CFFA13B030BD00000D48016841F0010168
:103EF000016041680B4A1140416001680A4A114063
:103F00000160016821F480210160416821F4FE0113
:103F100041604FF41F0181600449C003086070478D
:103F2000001002400000FFF8FFFFF6FE08ED00E081
:103F30007047000038B51348FCF705FF124C00909D
:103F400004F108011148E368626800F0C1FE1049FD
:103F5000086060680021401C6060E268904200D305
:103F600061600C480C4B0268521C02601C68012CFA
:103F700003D10A4C226001601960BDE8384008484E
:103F8000FEF792BE8804002034000020C00E0020FE
:103F90000C00002030000020180000201C00002031
:103FA000F8040020F0B50268164B174C174D4FF07F
:103FB0008047984205D0B84203D0A04201D0A84221
:103FC00003D122F070064A683243984205D0B842C5
:103FD00003D0A04201D0A84203D122F44074CA68A1
:103FE000224322F080044A69224302608A68C26246
:103FF0000A688262984201D1096901630121416125
:10400000F0BD0000002C014000040040000800400A
:1040100010B50123046A8B409C430462036A8A4002
:104020001343036210BD10B5846842EA032224F4EE
:104030007F440A432243826010BD826822F07002EE
:104040000A4342F007018160704710B5036A046AB1
:1040500024F001040462846924F0F00444EA0214A8
:1040600023F00A020A438461026210BD10B5036A9C
:1040700023F0100303628369046A23F4704343EA64
:10408000023224F0A00343EA01118261016210BDF3
:1040900010B5406A0021C185C184FEF7ECFE10BD59
:1040A0000168CA6822F49072CA6001684A6922F005
:1040B00001024A61202180F83A10704710B590F84B
:1040C0003A10222901D0022010BD8168B1F5805F2D
:1040D00011D00169002901681FD0496801F07F03F0
:1040E000816A4A1C82620B70C18D491E0904090C49
:1040F000C18518D02BE00269816A002A02685268E3
:1041000005D0D2B20A80816A491C8162ECE7C2F311
:1041100008020A80816A891CF7E74A68816A4B1C99
:1041200083620A70E0E70168CA6822F02002CA6070
:104130000168CA6822F48072CA6001684A6922F084
:1041400001024A61202180F83A10FEF7E7FF0020C3
:1041500010BD00002DE9F041044600680169E268E5
:1041600021F44051114301612169A068084361694C
:1041700008432168CA6841F20C639A430243CA604B
:1041800020684169A26921F44071114341614C49A1
:1041900020686425322688423CD1FEF7B3FA00EB52
:1041A000C00101EB001061688900B0FBF1F7FEF778
:1041B000A9FA00EBC00101EB00106168B04689006C
:1041C000B0FBF1F0B0FBF5F06FF01801484307EBDE
:1041D000800106EB0110B0FBF5F000F0F006FEF7F1
:1041E00091FA00EBC00101EB001061688900B0FB9F
:1041F000F1F0B0FBF5F006EB0016FEF783FA00EBEA
:10420000C00101EB001061688900B0FBF1F7FEF717
:1042100079FA3BE0FEF766FA00EBC00101EB001013
:1042200061688900B0FBF1F7FEF75CFA00EBC001B2
:1042300001EB00106168B0468900B0FBF1F0B0FB03
:10424000F5F06FF01801484307EB800106EB011011
:10425000B0FBF5F000F0F006FEF744FA00EBC00109
:1042600001EB001061688900B0FBF1F0B0FBF5F0E4
:1042700006EB0016FEF736FA00EBC00101EB00106A
:1042800061688900B0FBF1F7FEF72CFA00EBC00182
:1042900001EB001061688900B0FBF1F0B0FBF5F0B4
:1042A0006FF01801484307EB800108EB0110B0FBE9
:1042B000F5F0216800F00F0030448860BDE8F0811F
:1042C0000038014090F83910212901D002207047B0
:1042D0008168B1F5805F016A0BD04A1C02620268F6
:1042E00009785160C18C491E0904090CC1840ED0A3
:1042F00017E009880268C1F30801516001690029CB
:10430000016A02D0491C0162ECE7891CFBE70168E5
:10431000CA6822F08002CA600068C16841F04001AA
:10432000C160002070472DE9F041984617460E46BF
:104330000446069D1DE0681C1BD02DB1FEF706F853
:10434000A0EB0800A84214D92068C16821F4D071FC
:10435000C1602068416921F001014161202084F899
:10436000390084F83A00002084F838000320BDE8C2
:10437000F0812068006836EA000004D00020B842CE
:10438000D9D00020F3E70120F9E7000010B5054877
:10439000FEF772FDBDE81040012203490148FEF717
:1043A00093BE0000380500202C0000200148FEF7D5
:1043B00063BD000078050020FEE702E008C8121F78
:1043C00008C1002AFAD170477047002001E001C1FE
:1043D000121F002AFBD170472DE9F041C1F30A52A8
:1043E000A2F2FF362F4A304B0D460446142E2FDA28
:1043F000002E12DAFCF71AF900221346FCF7BEF978
:104400004CD2002DBCBF4FF00045002446DB55EADE
:10441000040018BF254D19D140E0DFF894C02CFAF4
:1044200006F705EA070C5CEA040C08BFBDE8F0815A
:10443000FCF7FCF800221346FCF7A0F92ED2002D61
:1044400003DD4FF48010F0400544BD43002425E017
:10445000332EC8BFBDE8F081A6F1140C4FF0FF3732
:1044600027FA0CF73C4208BFBDE8F081FCF782F95F
:1044700000221346FCF782F910D2002D0DDD142E18
:1044800008BF6D1C09D0C6F13400012101FA00F00B
:104490002044A04238BF6D1C0446BC432946204638
:1044A000BDE8F0819C7500883CE4377E0000F03F59
:1044B000FFFF0F00A0B0FDF757FFFCF729FAFFF749
:1044C000DEFCFEF785FFFF48FD494FF4E13600248E
:1044D0000160C0E901640C27C460C0E9044784613D
:1044E000C461FEF751FDFEF747FFF64DF648403D2B
:1044F0002860C5E90164EC60C5E90447AC61284661
:10450000EC61FEF741FDFFF71FF8FFF749F80021C6
:10451000A5F14000FEF77CFCA5F1B000FCF74EFDD4
:104520002520FDF76FFF2868C16841F02001C160B8
:10453000E64DE00767D0012220212846FDF701FF64
:104540003220FCF7E7FD012240212846FDF7F9FE65
:104550003220FCF7DFFD012280212846FDF7F1FE25
:104560003220FCF7D7FD641C282CE2DBFCF7B6F9FF
:10457000FCF7B4F9C622D649D648FBF7E3FDD54887
:104580006822D549C630FBF7DDFDD549DFF84CA3DD
:10459000D0480968CAF82010D249D9300988AAF849
:1045A0000410D1490988AAF80610D0490A6840F8D1
:1045B000552F4A6842608968816000222021C348E3
:1045C000FDF7BFFE80216846FBF7E3FD0020C14DEB
:1045D000C04E0146BE3D00BF01EB810202EBC103AC
:1045E000BC4A05EBC104C632D35CBC4A24325354E6
:1045F00001EB410303EBC103002206EB43039F5C85
:10460000012F12D014E0002220212846FDF799FE48
:104610003220FCF77FFD002240212846FDF791FE65
:104620003220FCF777FD002296E72254401CC0B2EE
:10463000521C082AE3DB1B7A0022C3F10803AB46B5
:1046400004E000272754401CC0B2521C9342F8DCFF
:104650000020491C0829BFDB8021A548FDF76CFE1E
:104660000124012806D18AF8004000224021974801
:10467000FDF767FE994901200870924D4035287872
:1046800003287DD004281DD005287AD00628F4D12F
:104690006878082876D0092875D0152874D017288E
:1046A000EBD18E48172101700121417000218170EA
:1046B000C170FCF713F94FF47B71A5F21C50FBF7A6
:1046C00068FDD5E0687812287ED015DC032827D055
:1046D00004287AD00728D0D18049804A08708548BC
:1046E0000221921D0170137883705278C27041705C
:1046F000032101710522B4E0132867D01828BCD12A
:10470000764812210170FCF7E9F87A48022101701D
:1047100033218170012141700321C1700422A0E086
:104720006E4803277349077002206A4E0870002400
:1047300004EB440202EBC40206EB4202D2F80E3054
:104740001D0E0D54401C1D0C0D54401C1D0A0D5413
:10475000401C0B54D2F81230401C1D0E0D54401C4E
:104760001D0C0D54401C1D0A0D54401C0B54D2F856
:104770000A30401C1D0E0D541D0C401C0D5404E04D
:104780001CE2D8E025E24DE275E2401C1D0A0D5402
:10479000401C0B54401C537A0B54401C137A0B548E
:1047A0000023401CD55C0D54401C5B1C082BF9DB1E
:1047B000641C092CBCDB474B0022C63302EB82048D
:1047C00004EBC2041C5D02E0AFE009E057E00C54CA
:1047D000401C521C082AF1DB821E4A700F543EE036
:1047E0003E4904200870434902200023087001F26A
:1047F0002D6400BF03EB830202EBC305625D0A5424
:1048000000222544401CAE18521C76780E54401CE1
:10481000062AF8DB0022AE18521CF6790E54401C12
:10482000062AF8DB5B1C082BE4DB2C4A20321378C9
:104830000B54401C53780B54401C93780B54401C71
:10484000D2780A54254A401C121D13780B54401C80
:1048500052780A54421E4A700322401C0A54401CDB
:1048600082B232232349A1F5F270FEF78DFCADE14F
:104870002149402201F25C50FBF764FCFDE6174E33
:104880001E4C13253570A1682068FEF719FD706174
:10489000FCF724F81749022008707069020E8A702C
:1048A000020CCA70020A0A7148712068020E8A71ED
:1048B000020CCA71020A0A724872A068020E1FE056
:1048C000004800407805002000380140000C0140FD
:1048D000007C0108830C00200080010800000020FB
:1048E0000084010800880108008C0108009001087C
:1048F000000801401C0700205C000020B10D0020D2
:104900008A72020CCA72020A0A7348736068020E45
:104910008A73020CCA73020A0A7448741020487021
:104920000320887432232A469CE7E149122008704C
:10493000FBF7D4FF4AE1687803280BD004287DD028
:1049400007287CD0112899D1D94811210170D94963
:10495000002018E1D64903200870FBF7BFFFDFF8FD
:1049600054830224DFF850A3002708F17E08285D55
:10497000641C295D641C00EB0120295D641C00EBB4
:104980000140295D641C00EB016007EB470101EB6E
:10499000C70208EB42065146FBF75EFCFBF76FFDD2
:1049A000FFF71AFDDFF8149300224B46FBF7C4FC17
:1049B000FBF778FDC6F80E00285D641C0A36295DF9
:1049C000641C00EB0120295D641C00EB0140295DA3
:1049D000641C00EB01605146FBF73EFCFBF74FFD0A
:1049E000FFF7FAFC00224B46FBF7A6FCFBF75AFD4B
:1049F000B060285D641C4FF00009295D641C00EB69
:104A00000120295D641C00EB0140295D04F10104D3
:104A100010EB016046F80A0902D0801CC6F80A00B3
:104A2000285D641C7072285D30720020641C295D52
:104A30003154401C641C0828F9DB01E03EE08BE0A7
:104A40007F1C092F93DB9E49002000EB80032A5D29
:104A500003EBC003401C641CCA540828F5DB01208A
:104A6000FCF708F80220FCF705F80020024602EBEC
:104A7000420303EBC20300210BEBC20408EB430328
:104A80005D5C012D02D12154401CC0B2491C082993
:104A9000F6DB1B7A0021C3F108054B4603E02354E3
:104AA000401CC0B2491C8D42F9DC0020521C082A6F
:104AB000DDDB8049A93908664866D9E67C490420CF
:104AC0000870FBF70BFF02207D4C002101EB8103F6
:104AD00003EBC1032A5CE25400222344401C9F18CC
:104AE0002E5C401C521C7E70062AF8DB00222E5CD5
:104AF0009F18401C521CFE71062AF8DB491C08292D
:104B0000E4DB6B492A5C2031401C0A702A5C401CA3
:104B10004A702A5C401C8A702A5CCA70401C1C398E
:104B20002A5C401C0A70285C48700220FBF7A2FF38
:104B30000320FBF79FFF0420FBF79CFF5C4900204C
:104B400011F1240100EB800202EBC002A25C0A54C6
:104B5000401C0828F6DB8BE6554907200870FBF758
:104B6000BDFE5348A978801D0170E9784170052089
:104B7000FBF780FF2AE000BF01EB8203521C43F8E1
:104B8000020F58655862092AF6DBC1F84A00C1F8DD
:104B90007A004870087001224A4C55022946204686
:104BA000FDF7CFFB6420FCF7B5FA0022294620462A
:104BB000FDF7C7FB6420FCF7ADFA59E668780128D9
:104BC00002D002287FF45AAE39490870FBF786FEFE
:104BD0004EE637483A4D08210170002415F168056A
:104BE000FEF7A8FB641C2860052CF9DBFBF776FEBA
:104BF0003548022101700421417029680A0E827033
:104C00000A0CC2700A0A02714171032181710620E7
:104C1000FBF730FF2C490A230722A1F5C070FEF7ED
:104C2000B3FA25E622480921254C00250170683495
:104C30002068FEF709FB6D1CA060052DF8DBFBF773
:104C40004DFE214802210A23017004214170A16810
:104C50000A0E82700A0CC2700A0A027141710321A5
:104C6000817101460722A0F5C070FEF78DFA06207B
:104C7000FBF700FFFCE50E4C15202070A878A06023
:104C8000282802D2FEF70EFD07E0292802D02A28A4
:104C900003D00AE0FEF76AFF07E00C49402201F268
:104CA0005C50FBF74FFA0020A060FBF717FEE4E42E
:104CB00000000020050C00200000204100002440DE
:104CC000490D0020000C0140B80600205C000020C7
:104CD00070B550F822600D68049CAD1B25440D6032
:104CE00040F822400868B0FBF3F070BD00000000FF
:104CF000000000000102030406070809000000008C
:104D000001020304244D0008000000205C000000A4
:104D1000BA430008804D00085C000020541A0000CF
:104D2000CA4300080000000000000000000000006E
:104D30000000000000000000000000000000000073
:104D40000000000000000000000000000000000063
:104D50000000000000000000000000000000000053
:104D600000000000F401000000000000000000004E
:104D700001000000100000000000000000A24A0432
:04000005080000ED02
:00000001FF
